:020000040800F2
:10000000005000203D1F00085D1800085F18000820
:100010006118000863180008651800080000000057
:100020000000000000000000000000006718000849
:1000300069180008000000006B1800086D1800081F
:10004000811F0008811F0008811F0008811F000810
:10005000811F0008811F0008811F0008811F000800
:10006000811F0008811F0008811F0008811F0008F0
:10007000811F0008811F0008811F0008811F0008E0
:10008000811F0008811F0008811F0008811F0008D0
:10009000811F0008811F0008811F0008811F0008C0
:1000A000811F0008811F0008811F0008811F0008B0
:1000B000811F0008811F0008811F0008811F0008A0
:1000C000811F0008811F0008811F0008811F000890
:1000D000811F0008811F0008811F0008811F000880
:0C00E000811F0008811F0008811F00081C
:1000EC0038B505460C4600F0D9FDA84215D021467E
:1000FC00284600F0BFFD0C4B1B789BB10B4B1A78BC
:10010C00AA420FD15B78191B18BF01210022084BA2
:10011C00C9B21970074B1A7003E000F0C5FDA0427C
:10012C00E5D138BD0121F1E7410000203C00002061
:10013C00400000203900002010B50446807900F002
:10014C00E9FD08B9002010BD607900F0E3FD00283E
:10015C00F8D0E07800F0DEFD003818BF0120F2E79F
:10016C000023024A1370024A137070472C000020BF
:10017C002D00002008B50023094A1380094A13708A
:10018C00094A1370094A1370094A13700022094B6B
:10019C001A6000F00BFC084B1860084B186008BD87
:1001AC003A00002039000020180000203F000020F9
:1001BC00190000201C00002020000020240000203A
:1001CC00552310B50D4C237064232046637000F04A
:1001DC00FDFA0B4B61781870207800F04BFD002372
:1001EC00084A1370084A1370084A1370084A1360BF
:1001FC00FFF7C0FFBDE81040FFF7B2BF3C00002086
:10020C0041000020380000203E000020400000206B
:10021C00300000202DE9F04F87B0054600F0C6FBFA
:10022C00044615B12B78732B05D0FFF7A3FF0020E4
:10023C0007B0BDE8F08F9F4BB5F80160B3F80080B4
:10024C001E8000F02BFD074600F02EFD16F001037A
:10025C000146039366D026EA080818F4804F33D081
:10026C0064210846FFF73CFF18F4005F5AD028467B
:10027C00FFF762FF0290002851D001238E4A1370C1
:10028C00687901F07DFF00F04BFD8046E87801F0C5
:10029C0077FF00F045FD00210746404602F066F965
:1002AC004FF0000A002840D008F100435146384670
:1002BC00019302F05BF9002800F0D48007F10043B1
:1002CC0000934FF0FF3944E006F41043B3F5104FA0
:1002DC000FD018F4004F04D0372F38BF3727053F05
:1002EC00FFB218F4805F04D05F2F28BF5F2705375B
:1002FC00FFB206F05003502B0FD018F0400F04D073
:10030C00372938BF37210539C9B218F0100F04D07E
:10031C005F2928BF5F210531C9B23846A2E7042204
:10032C00664B1A7000230293AAE75146384602F036
:10033C001DF9002800F0948007F100430093002180
:10034C00404602F031F9CDF804800028B9D04FF0C6
:10035C000109012EDFF868B140F08680A87900F021
:10036C00D9FC88B15749019802F000F960B9564997
:10037C00019801F05DFF0146009802F015F918B9DB
:10038C0000F098FC002876D10023504A1370504A94
:10039C00C2F800A04F4A13704F4B1C604F4B1C60AF
:1003AC00002E40F085802846FFF7C6FE00287FD03F
:1003BC00304600F07FFC00287AD19BF8003023B93E
:1003CC00474B1C6001238BF800303B4B1B78002BF8
:1003DC003FF42DAF029B5BB99BF80030002B3FF430
:1003EC0026AF3F4B1B68E31AB3F5FA6FFFF41FAF50
:1003FC003C4D3D4E2B7833B147F22F523368E31A04
:10040C0093427FF614AF00F0BFFC00F047FC8DF870
:10041C00140000F049FC8DF8150005A800F0E8F96F
:10042C000122264B34602A70002800F0CF802F491F
:10043C00BDF814400C802E490A7000221E490A7027
:10044C001870042300242B4A13702B4B1C7000F0E3
:10045C00ADFA2A4B963818608BF800400120E7E67D
:10046C0000976CE700972CE7039B002B8CD1244B57
:10047C00039A1A7088E71549184A91F900304B45D0
:10048C00154B06D081F8009011491C601460C1F81E
:10049C0000A0D3F800901C601368E31AB3F5167F24
:1004AC0003D3174D2B78092B2CD90023094A137031
:1004BC00002388E73A000020400000203E00002086
:1004CC00390000209A99993E3333B33E190000202D
:1004DC001C0000203F0000202000002024000020F1
:1004EC003400002038000020300000203C000020A8
:1004FC00410000202D0000202C00002028000020AE
:10050C00180000200123334A39461370384601F095
:10051C0087FD414601F040FF2F4901F089FE074657
:10052C00A4EB0900142828BF142001F029FE2B4E3F
:10053C000146384601F07CFE294901F02DFF316857
:10054C0001F06EFD306000F0A9FB074600F0ACFB3B
:10055C00D6F8009080464FF07E51484602F01AF8CB
:10056C00E0B1632F0FD80137FFB24FF07E514846F0
:10057C0001F054FD2B78306001332B704146384626
:10058C00FFF7AEFD94E7B8F1320F04D908F1FF384C
:10059C005FFA88F8E9E7C6F800A089E748461149F0
:1005AC0001F0EEFF0028E9D0322F07D9013FFFB24E
:1005BC004FF07E51484601F033FDDBE7B8F1630F95
:1005CC00E9D808F101085FFA88F8F1E703221A70FC
:1005DC000A2337E73F0000200000A0401C00002049
:1005EC0000007A44000080BF38B50E4D04462878D0
:1005FC00A0B1A4B100F0DAF90B490C4A0B68C31A8C
:10060C00952B08D913780860B3FA83F35B09137040
:10061C002B78013B2B7001201378237038BD2046BA
:10062C00FCE700BF2D000020280000202C0000203B
:10063C00008880B2704708B501F0FEFBBDE80840A9
:10064C00342001F00DBC01F003BC0000064A08B5D3
:10065C0020F48063934205D101F02EFC031F584215
:10066C00584108BD0020FCE700F8000800F1784371
:10067C00A3F57843B3F5006F70B505460E460FD25F
:10068C0010F001040CD101F037FC042806D12888A5
:10069C0080B2331A58425841C0B270BD2046FBE7B5
:1006AC000020FAE758B10378323B322B06D8407859
:1006BC00323832288CBF0020012070470020704750
:1006CC0070B50022044641F221064FF6FF70C2F3CA
:1006DC00460334F8133002F00101C9000B41082124
:1006EC0080EA032080B210F4004F0CBF0023334685
:1006FC004500ADB285EA03004B1E13F0FF01F2D1A9
:10070C0001320C2AE3D170BD38B50C4602890A704F
:10071C00110A61704CF2172105888D4217D141885E
:10072C00012914D14AF25A51C5898D420FD1418900
:10073C004A404FF6FF718A4209D18589FFF7C0FF05
:10074C00854204D12046FFF7ADFFC0B238BD002072
:10075C00FBE770B50C4601F11006451A2819FFF796
:10076C0067FF24F8020BB442F8D170BD2DE9F043B9
:10077C0000251022002187B00446A84601F0FCFB9E
:10078C002F46104EDFF84090304602A9FFF7E1FFEC
:10079C0001A902A8FFF7B8FF50B1039B17B15A1B70
:1007AC00002A05DD1D46B0460746BDF80420A2818F
:1007BC0010364E45E8D12046C4E90185277007B0B4
:1007CC00BDE8F08300F80008000001081FB50446DE
:1007DC0010B9002004B010BD6846FFF7C7FF9DF8A4
:1007EC000030002BF5D0BDF80C3001202380F1E750
:1007FC002DE9F04F8FB00746FFF754FF002872D059
:10080C0002A8FFF7B3FF9DF80850002D5BD09DF8B0
:10081C0014203B789A4204D19DF815207B789A429B
:10082C0063D0039E6FF3090634464FF6FF7B06F543
:10083C00806AA04604F110094046FFF7F9FE5845BE
:10084C0043D108F10208C845F6D1FFF7F4FE5CB9B4
:10085C00002D3FD0264B274C9E4218BF1C462046ED
:10086C00FFF7F4FE00283CD00DB1049D0135224B5E
:10087C0006A8CDE906353B882646ADF82030DB438B
:10088C00ADF82230FFF71CFF4AF25A534FF6FF78AF
:10089C00ADF82400ADF8263006AD04F1100735F89C
:1008AC00021B414518D10236B742F8D1FFF7CBFEF7
:1008BC0020460AA9FFF74DFF01A90AA8FFF724FF5C
:1008CC000FB0BDE8F08F0A4EAEE7CA454C46B0D12A
:1008DC000024BAE73446C2E73046FFF7C7FE0028CB
:1008EC00E1D1FFF7B0FE0020EAE70220E8E700BF05
:1008FC0000F8000800FC000817C201000B4B002296
:10090C001B6858434FF0E023013858619A611A690B
:10091C0042F001021A611A69D203FCD51A6922F05D
:10092C0001021A6100229A61704700BF5400002036
:10093C0038B5154D00F062FF2B68144A0024B3FB48
:10094C00F2F3134A042013604FF0E0231C6100F013
:10095C0088FF104AD2F8FC3043F08073C2F8FC30A8
:10096C000D4B5C601A6842F001021A604FF47A7207
:10097C002B68B3FBF2F3094A1360094B1C60094B5B
:10098C001C60094B1C6038BD1400002040420F0055
:10099C005400002000ED00E0001000E050000020AA
:1009AC0044000020480000204C0000200F4B104A4F
:1009BC005B68116830B513600E4A1068A0B15B1A01
:1009CC00B3FBF0F40C4900FB14330A6822440B4CC3
:1009DC000A6025682B4498429CBF01321B1A1046B2
:1009EC008EBF236023600A6030BD00BF001000E0A2
:1009FC004C00002050000020440000204800002043
:100A0C0008B1FFF77BBF7047014608B501B908BDB7
:100A1C004FF47A700139FFF771FF89B2F6E70000E5
:100A2C0010220021014801F0A7BA00BF5D00002090
:100A3C0083B5FFF77DFF00F057FAFFF7C1FB00F01D
:100A4C00A3F90121102000F073FF4FF400517548F9
:100A5C0000F06AFF01A800F05AFF734B714801A91E
:100A6C00019300F009FF0023704F714E714D3B70E4
:100A7C0033702B7000F08AFCDFF8BC816F4CDFF810
:100A8C00C091204600F03AFD22786E4B1A706E4AE7
:100A9C0013680133136030BB00F076F9002389F83A
:100AAC000030FFF7BDFFFFF765FB00F05DFA00209B
:100ABC0000F000F9002840F0828001A8FFF794FDB7
:100ACC0000287ED09DF804304FF400515548002B7F
:100ADC0072D000F02BFF002333702B703B700A2078
:100AEC00FFF792FFCAE763781B0707D5642000F075
:100AFC0079F9FF2388F80030FFF732FB2378732B4A
:100B0C00CAD1637813F0080AC6D199F80030E3B95A
:100B1C0000F03AF9FFF784FFFFF72CFBA07900F007
:100B2C00F9F80028C1D0607900F0F4F80028BCD0A6
:100B3C00E07800F0EFF80028B7D06378A278134380
:100B4C00B3D1012389F80030AFE73C48FFF762FBD3
:100B5C0020B189F800A0FFF763FFA6E794F802C064
:100B6C0061783A4A072888BFA0F1080392F800E0A0
:100B7C0094BF41FA00F34CFA03F303F00103BEF106
:100B8C00000F04D01BB95FFA80FE88F800E001303A
:100B9C00102802F8013BE5D1E07801F0F1FA824629
:100BAC00607901F0EDFA8146A07901F0E9FA52463C
:100BBC00494600F0D9FA78E700F0B6FE8BE7FFF76C
:100BCC00CFFA3C2000F076F8044640B94FF40051BF
:100BDC00144800F0A9FE3C7034702C707FE73B7811
:100BEC004BB901224FF400510E483A7032702B7001
:100BFC0000F09CFE73E72B780133DBB2272B01D876
:100C0C002B706CE700232B7033784FF40051002BC2
:100C1C000CBF0123002303483370E9D000F084FE9D
:100C2C005DE700BF0010014000200210770000209B
:100C3C007600002075000020000000206E000020CF
:100C4C006D0000205C000020580000205D0000209A
:100C5C0010B5074C206800F02DFD606800F030FDE9
:100C6C00A06800F033FDE068BDE8104000F036BD30
:100C7C0090000020A0F13203322B09D8A1F13203ED
:100C8C00322B05D8034B1870034B01201970704799
:100C9C00002070470200002001000020014B187852
:100CAC00704700BF02000020014B1878704700BF4E
:100CBC00010000204FF461632DE9F04700254FF04F
:100CCC0000094FF0640803FB00F6104FDFF840A05A
:100CDC0057F8044B4946204601F048FC08B104F192
:100CEC0000445146204601F0A3FA01F067FC80B2A3
:100CFC0008FB00F0B04206D80135EDB2042DE7D167
:100D0C000020BDE8F0870120FBE700BF9000002029
:100D1C0000006145783810288CBF002001207047F6
:100D2C0010B50021044601F035FC28B320461349C8
:100D3C0001F026FC00B321464FF0864001F06EF91D
:100D4C004FF08241044601F02FFC40B14FF082413C
:100D5C00204601F063F90A4901F01EFB10BD4FF06B
:100D6C004141204601F002FC30B14FF08241204657
:100D7C0001F056F90349EFE70020EFE700007F434D
:100D8C000000F0420000EE422DE9F041FFF70EFEAC
:100D9C00002405464FF000080E4F0F4E414657F801
:100DAC00040B01F0D9FB90B10134E4B2042C47F8E8
:100DBC00048C06F10406F1D110220021074801F041
:100DCC00DBF8074B1D60BDE8F04100F08FBC3560CF
:100DDC00EAE700BF900000207C000020A00000206B
:100DEC0078000020642828BF64202DE9F0473A4B96
:100DFC0018701A781AB9BDE8F047FFF7C5BF187814
:100E0C0001F0BEF9354901F0C7FA4FF0000A344F32
:100E1C000546B8460426D14658F8044B49462046A8
:100E2C0001F0A4FB08B104F100445146204601F046
:100E3C00BBFB00B95446013E16F0FF06A246EBD1AF
:100E4C002946204601F0B0FB78B12146284601F036
:100E5C00A3FA042406463868314601F0E9F9013C4E
:100E6C0014F0FF0447F8040BF5D104244FF00008EC
:100E7C001C4F57F8046B4146304601F077FB68B1C4
:100E8C00284606F1004101F071FB90B9013C14F0C9
:100E9C00FF04EED1BDE8F047FFF7DABE2946304635
:100EAC0001F082FB0028F1D04146304601F07CFB7A
:100EBC0078B90021304601F059FB003818BF0120E9
:100ECC00404201F061F9294601F0B2F947F8040CEF
:100EDC00DCE70120F5E700BF130000200000C8424A
:100EEC0090000020A000002010B5FFF75FFD044625
:100EFC0000F094FB10220021124801F03DF8102262
:100F0C000021114801F038F80022104B1A60104BE8
:100F1C00104AC3E90044C3E902440F4B03F110012A
:100F2C0053F8040B8B4242F8040BF9D15522642080
:100F3C000A4B1C600A4B1A700A4B1870BDE8104023
:100F4C00FFF750BF90000020A00000208C00002074
:100F5C007C000020030000201826000878000020E8
:100F6C0002000020010000202DE9F04F8BB0FFF7AC
:100F7C001DFD0024744A06461368A346C31A142B9D
:100F8C0028BF14230027714DDFF8C481106005932E
:100F9C0055F8049B3946484601F006FB002840F002
:100FAC00B7803946484601F0E1FAB8B14FF0FF334B
:100FBC0018F9042092B19A4210D0664B002153F8D4
:100FCC00240001F0C9FA002800F0A480624B53F809
:100FDC002430F31A272B98BF4BF0010B0134042C4F
:100FEC00D6D14FF0000A4FF07E574FF0000806ABF9
:100FFC000193584B02930493019B0393BBF1000F95
:10100C0040F08B80514B53F82A90039B484643F891
:10101C00049B0393049B53F8045B2946049300F050
:10102C00FDFF4146044601F0A1FA08B104F1004469
:10103C004146484601F09AFA10B109F1004399462D
:10104C004146284601F092FA08B105F100452946BF
:10105C00484601F0A9FA002861D0404D059801F0EE
:10106C008FF8294601F0E4F83D4901F095F9214645
:10107C00054601F07BFA80B14146204601F094FA16
:10108C0058B12146284601F087F93946044601F04B
:10109C006DFA002845D0204607460AF1010ABAF13C
:1010AC00040FABD100244FF07E590025DFF8A0B01F
:1010BC00029B494653F8048B38460293019B53F824
:1010CC0004AB019301F066FA50B94146504600F06A
:1010DC00A5FF394601F0ACF8414600F0A1FF82466D
:1010EC00029B2946504643F804AC01F035FA2946D8
:1010FC00C8B1404601F030FA10B9174B43F82460E0
:10110C000134042CD4D10BB0BDE8F04FFFF7A0BDD7
:10111C0001234DE74FF0010B60E7C14675E7114D18
:10112C009CE73846B8E7504601F03EFA50B900212A
:10113C00504601F01BFA003818BF012040420BF852
:10114C000400DDE70120FAE778000020A000002071
:10115C008C000020900000207C0000200000FA434E
:10116C000050C34700007A442DE9F04F89B0144673
:10117C000E46FFF7D5FD05463046FFF7D1FD074675
:10118C002046FFF7CDFD7A4B0446187800F0F8FFA7
:10119C00784901F001F9784B0090187800F0F0FFD5
:1011AC00394601F045F8734901F0F6F8734B0646E1
:1011BC00187800F0E5FF394601F03AF86D4901F076
:1011CC00EBF807460146284600F028FF214600F0C0
:1011DC0027FF39460490284600F022FF214600F0F4
:1011EC001DFF31460590284600F01AFF214600F0FD
:1011FC0017FF31460690284600F010FF214600F0FC
:10120C000DFF0DF1100A56464FF000084FF07E55B9
:10121C000027079056F8044B3946204601F0A6F9F2
:10122C0008B104F100442946204601F0BDF930B361
:10123C00019408F101085FFA88F8B8F1040F019DD8
:10124C00E8D14F4B4FF0000903934E4B00279846C3
:10125C004D4E029301995AF8040B01F09DF8009938
:10126C0000F0E6FF3946054601F09EF948B13078AA
:10127C0000F08AFF044696F802B028460FE001956C
:10128C00D7E7707800F080FF39460446284696F878
:10129C0003B001F06BF90028EFD005F100402146B6
:1012AC0000F0C6FF334901F077F83946044601F0E7
:1012BC007BF968B1584600F067FF2E4901F06CF8D5
:1012CC002146834601F070F900284AD0584604465E
:1012DC002046009901F068F900B1009C3946284677
:1012EC0001F062F900283ED13946284601F03EF95A
:1012FC00003818BF01204042039B043653F8045BAE
:10130C00039300F041FF214600F092FF294600F0C4
:10131C008FFF029B43F8040B029309F101035FFA60
:10132C0083F9B9F1040F95D10021D8F8000001F030
:10133C0013F9D0B10021D8F8040001F00DF9A0B1D7
:10134C000021D8F8080001F007F970B10021D8F895
:10135C000C0001F001F940B109B0BDE8F04FFFF706
:10136C0013BD2046B3E70120C6E709B0BDE8F08FF6
:10137C00130000200000C8420200002001000020E1
:10138C0008260008A00000200300002007B501215A
:10139C00082000F0CDFA01A800F0B9FA4FF4304162
:1013AC000B4800F0C1FA0B4B01A90948019300F05E
:1013BC0063FA4FF48043ADF804304823044801A984
:1013CC008DF8073000F058FA03B05DF804FB00BF4D
:1013DC00000C014000B00310F8B500240646254669
:1013EC000123A34033424FF400411248DFB21DD019
:1013FC0000F09AFA4FF400510E4800F097FA1020C2
:10140C00FFF7FEFA4FF480410A4800F087FA00B16A
:10141C003D434FF40051074800F086FA0134102088
:10142C00FFF7EEFA082CDBD12846F8BD00F07EFA67
:10143C00E0E700BF000C01402DE9FF410E460446D9
:10144C0018B9002004B0BDE8F0810023037043708C
:10145C00837080234FF42041C370037143718371F7
:10146C00244800F061FA4FF48051224800F05EFAF3
:10147C001020FFF7C5FA0925DFF87C8001AF18F8BA
:10148C00010BFFF7A9FF013D07F8010B1020FFF737
:10149C00B7FA15F0FF05F2D14FF41041154800F0E2
:1014AC0043FA9DF80530732B03D0002EC9D0412B85
:1014BC00C7D19DF806205A2AC3D19DF80720732B5B
:1014CC006FEA020262709DF8082023706FEA020234
:1014DC00A27001D00120B5E79DF80930E3709DF8AA
:1014EC000A3023719DF80B3063719DF80C30A37199
:1014FC00F0E700BF000C0140282600080121FFF78F
:10150C009BBF000030B589B0044600F041FA01A839
:10151C0000F062FC002540F60F632046CDE9015334
:10152C0000F079FC01A9204600F016FB04A800F09D
:10153C005CFC0C4B204604A90493ADF81850ADF894
:10154C00165000F053FB204604A900F093FB2046F4
:10155C0004A900F0CFFB204604A900F009FC09B057
:10156C0030BD00BF60000100F8B505460F461046BF
:10157C000021164600F0FAFFF0B106F100444FF0DE
:10158C007E51204601F006F8F0B92046224900F0C1
:10159C004FFE01F013F884B2002130460FB301F076
:1015AC0003F8A0B12846002100F03EFC2146284655
:1015BC00BDE8F84000F036BC0021304600F0F4FFE6
:1015CC000446D8B13446DAE74FF46164E4E72846C0
:1015DC00002100F027FC21462846BDE8F84000F029
:1015EC0023BC00F0E1FF60B13946284600F020FC36
:1015FC0021462846BDE8F84000F018BC002FE6D183
:10160C003C462846002100F011FC21462846BDE846
:10161C00F84000F00DBC00BF0000614513B5032479
:10162C000121032000F090F901210C2000F080F939
:10163C00CF211C4800F07AF903211B4800F076F901
:10164C0001A800F064F9194B01A91648019300F0A8
:10165C0013F901A91448ADF8044000F00DF94FF04E
:10166C008040FFF74FFF1248FFF74CFF18238DF80F
:10167C000730CF2301A90B48ADF8043000F0FCF87B
:10168C0001A90948ADF8044000F0F6F801214FF02B
:10169C00804000F0B4FB0121054800F0B0FB02B023
:1016AC0010BD00BF00080140000C0140CF0003102A
:1016BC0000040040024601214FF08040FFF754BF68
:1016CC00024600214FF08040FFF74EBF0246012139
:1016DC000148FFF749BF00BF00040040024600214B
:1016EC000148FFF741BF00BF0004004010B50024C3
:1016FC002046FFF7DFFF2046FFF7E2FF2046FFF70B
:10170C00E5FF2046BDE81040FFF7E8BF374B82B03D
:10171C001A6842F001021A605968354A0A405A6048
:10172C001A6822F0847222F480321A601A6822F449
:10173C0080221A605A6822F4FE025A604FF41F028B
:10174C009A600022009201921A6842F480321A6068
:10175C001A6802F400320192009A01320092019A46
:10176C001AB9009AB2F5A06FF2D11A6812F40032CD
:10177C0018BF01220192019A012A30D11D4A116829
:10178C0041F010011160116821F003011160116822
:10179C0041F0020111605A685A605A685A605A68DE
:1017AC0042F480625A605A6822F47C125A605A6879
:1017BC0042F4E8125A601A6842F080721A601A6891
:1017CC009201FCD55A6822F003025A605A6842F022
:1017DC0002025A605A6802F00C02082AFAD14FF041
:1017EC000062054B9A6002B0704700BF00100240C7
:1017FC000000FFF80020024000ED00E00F4A5368A3
:10180C0003F00C03082B17D153685168C3F38343BF
:10181C00C80303F102030AD409494B43526809492E
:10182C00C2F303128A5CD340074A136070475168B5
:10183C008903F1D40549F0E7044BEFE700100240AF
:10184C0000093D00312600081400002000127A0027
:10185C007047FEE7FEE7FEE7FEE77047704770470C
:10186C0070474FF0E0231A6904280CBF42F00402C1
:10187C0022F004021A617047F0B5CB780E88DA06B4
:10188C0048BF8A7803F00F0548BF15430A78C2B1E8
:10189C00002101274FF00F0C026807FA01F434EA1B
:1018AC00060E0AD1282B2AD144618C000CFA04FEB6
:1018BC0022EA0E0205FA04F4224301310829ECD184
:1018CC000260FF2E1AD9002101274FF00F0C42683D
:1018DC0001F1080407FA04F434EA060E0AD1282BA5
:1018EC0011D144618C000CFA04FE22EA0E0205FAB6
:1018FC0004F4224301310829EAD14260F0BD482B9F
:10190C00D3D10461D1E7482B08BF0461EAE74FF655
:10191C00FF73038040F202434380704780680840A5
:10192C00003818BF01207047016170474161704752
:10193C00044B9A6911B102439A61704722EA000282
:10194C00FAE700BF00100240044BDA6911B1024300
:10195C00DA61704722EA0002FAE700BF0010024089
:10196C00044BDA6811B10243DA60704722EA0002D4
:10197C00FAE700BF00100240044B1A6911B1024390
:10198C001A61704722EA0002FAE700BF0010024019
:10199C0008B5614B98420BD101214FF40060FFF761
:1019AC00DFFF00214FF40060BDE80840FFF7D8BF0F
:1019BC00B0F1804F09D101210846FFF7DDFF00216E
:1019CC000120BDE80840FFF7D7BF544B984206D121
:1019DC0001210220FFF7D0FF00210220F1E7504B3C
:1019EC00984206D101210420FFF7C6FF00210420F4
:1019FC00E7E74C4B984206D101210820FFF7BCFFCA
:101A0C0000210820DDE7484B984206D10121102027
:101A1C00FFF7B2FF00211020D3E7444B984206D1C8
:101A2C0001212020FFF7A8FF00212020C9E7404B0F
:101A3C00984208D101214FF40050FFF791FF00218B
:101A4C004FF40050B0E73B4B984208D101214FF4C2
:101A5C000020FFF785FF00214FF40020A4E7364B50
:101A6C00984208D101214FF48010FFF779FF002133
:101A7C004FF4801098E7314B984208D101214FF474
:101A8C000010FFF76DFF00214FF400108CE72C4B7A
:101A9C00984206D101214020FFF76EFF0021402023
:101AAC008FE7284B984206D101218020FFF764FF75
:101ABC000021802085E7244B984208D101214FF466
:101ACC008070FFF759FF00214FF4807079E71F4BAE
:101ADC00984208D101214FF48030FFF741FF0021DB
:101AEC004FF4803060E71A4B984208D101214FF433
:101AFC000030FFF735FF00214FF4003054E7154B51
:101B0C00984208D101214FF48020FFF729FF0021D2
:101B1C004FF4802048E708BD002C01400004004031
:101B2C0000080040000C0040001000400014004071
:101B3C0000340140004C0140005001400054014071
:101B4C0000180040001C00400020004000400140F4
:101B5C000044014000480140224A038890429BB255
:101B6C0012D002F5006290420ED0B0F1804F0BD033
:101B7C00A2F59832904207D002F58062904203D0D1
:101B8C0002F58062904209D14A8823F07003134316
:101B9C00CA8823F440739BB2134306E0124A904266
:101BAC0003D002F580629042F2D103808B8883854A
:101BBC000B8803850B4B98420FD003F500639842BA
:101BCC000BD003F54063984207D003F5806398422D
:101BDC0003D003F58063984201D10B7A038601236D
:101BEC0083827047002C014000100040038C70B5BC
:101BFC0023F001031B041B0C0384038C8488028BCD
:101C0C000D8822F073021204120C4E882A4323F022
:101C1C0002030D891B0435431B0C2B43144DA4B23A
:101C2C00A8429BB20FD005F50065A8420BD005F574
:101C3C004065A84207D005F58065A84203D005F59C
:101C4C008065A8420ED14D8923F008032B438D8863
:101C5C0023F00403CE892B438D8924F4407435433F
:101C6C002C43A4B284800283CA888286038470BD0C
:101C7C00002C0140038C70B523F010031B041B0CCB
:101C8C000384038C8488028B0D8822F4E6421204B0
:101C9C00120C42EA05224E880D8923F020031B0406
:101CAC0035431B0C43EA0513114DA4B2A84292B262
:101CBC009BB203D005F50065A84213D14D8923F0E2
:101CCC00800343EA05134FF6BF751D408B88CE8900
:101CDC0045EA0315ABB28D8924F44064354344EADC
:101CEC008504A4B284800283CA880287038470BDF1
:101CFC00002C0140038C70B523F480731B041B0C67
:101D0C000384038C8288848B0D8824F07304240450
:101D1C00240C4E882C4323F400730D891B0435438B
:101D2C001B0C43EA0523114D92B2A8429BB203D07F
:101D3C0005F50065A84213D14D8923F4006343EAED
:101D4C0005234FF6FF351D408B88CE8945EA0325C8
:101D5C00ABB28D8922F44052354342EA051292B25D
:101D6C008280CA8884838287038470BD002C0140E2
:101D7C00038C70B523F480531B041B0C0384038C5D
:101D8C008488828B0D8822F4E6421204120C42EAFB
:101D9C0005224E880D8923F400531B0435431B0C7C
:101DAC0043EA05330B4DA4B2A84292B29BB203D0C6
:101DBC0005F50065A84205D18D8924F4804444EAD8
:101DCC008514A4B284808283CA88A0F8402003843E
:101DDC0070BD00BF002C01404FF6FF7383800023C1
:101DEC000380C380438003727047002303804380C9
:101DFC008380C380038143818381C38170470388BF
:101E0C0021B19BB243F001030380704723F001031F
:101E1C001B041B0CF8E7038923F007031B041B0CA2
:101E2C0003817047818670470187704781877047AF
:101E3C00A0F8401070470000034B044A5A6002F1AE
:101E4C0088325A60704700BF00200240230167456A
:101E5C00024A136943F0800313617047002002406B
:101E6C00014BD860704700BF00200240084BDA6875
:101E7C00D10709D4DA68520708D4DB6813F0100FC5
:101E8C000CBF0420032070470120704702207047CC
:101E9C000020024010B50446FFF7E8FF012806D1E8
:101EAC000CB9052010BDFFF7E1FF013CF6E7002C53
:101EBC0008BF0520F6E7000038B505464FF4302082
:101ECC00FFF7E8FF042813D10A4C4FF430202369A4
:101EDC0043F0020323616561236943F040032361EE
:101EEC00FFF7D8FF236923F00203DB04DB0C23612B
:101EFC0038BD00BF0020024070B505464FF40050BD
:101F0C000E46FFF7C7FF04280FD1084C4FF40050C2
:101F1C00236943F0010323612E80FFF7BBFF236984
:101F2C0023F00103DB04DB0C236170BD00200240B5
:101F3C00FFF7ECFB0A480B490B4A914204D250F8CC
:101F4C00043B41F8043BF8E70849094A0023914255
:101F5C0002D241F8043BFAE7FEF76AFD00F00AB83A
:101F6C004426000800000020180000201800002063
:101F7C00B0000020FEE70000830730B546D0844651
:101F8C00841805E0634603F8011B9D0703D09C46AB
:101F9C00A445F7D130BD013A0244A2EB0C02032A4E
:101FAC0029D9CCB204EB04240F2A04EB04442FD916
:101FBC00A2F1100C2CF00F0C03F11005AC44C3E98A
:101FCC000044C3E9024410336345F8D112F00C0FFE
:101FDC0002F00F0E18D01A462EF0030C9C44AEF1F2
:101FEC00040542F8044B6245FBD125F0030404338D
:101FFC000EF003022344002ACCD0C9B21A4403F8D1
:10200C00011B9342FBD130BD7246F4E70346C6E791
:10201C009646E0E780F0004002E000BF81F000410E
:10202C0042001FBF5FEA410392EA030F7FEA226C72
:10203C007FEA236C6AD04FEA1262D2EB1363C1BF02
:10204C00D218414048404140B8BF5B42192B88BF71
:10205C00704710F0004F40F4000020F07F4018BF94
:10206C00404211F0004F41F4000121F07F4118BFB4
:10207C00494292EA030F3FD0A2F1010241FA03FC5C
:10208C0010EB0C00C3F1200301FA03F100F0004344
:10209C0002D5494260EB4000B0F5000F13D3B0F10C
:1020AC00807F06D340084FEA310102F10102FE2A7B
:1020BC0051D2B1F1004F40EBC25008BF20F00100EB
:1020CC0040EA03007047490040EB0000013A28BF8A
:1020DC00B0F5000FEDD2B0FA80FCACF1080CB2EB0D
:1020EC000C0200FA0CF0AABF00EBC250524218438B
:1020FC00BCBFD0401843704792F0000F81F4000130
:10210C0006BF80F400000132013BB5E74FEA410302
:10211C007FEA226C18BF7FEA236C21D092EA030F6E
:10212C0004D092F0000F08BF0846704790EA010FE8
:10213C001CBF0020704712F07F4F04D1400028BF15
:10214C0040F00040704712F100723CBF00F50000F7
:10215C00704700F0004343F0FE4040F4000070472D
:10216C007FEA226216BF08467FEA236301464202D9
:10217C0006BF5FEA412390EA010F40F480007047EC
:10218C004FF0000304E000BF10F0004348BF404292
:10219C005FEA000C08BF704743F0964301464FF0CE
:1021AC0000001CE050EA010208BF70474FF000032A
:1021BC000AE000BF50EA010208BF704711F000436B
:1021CC0002D5404261EB41015FEA010C02BF84463B
:1021DC000146002043F0B64308BFA3F18053A3F59A
:1021EC000003BCFA8CF2083AA3EBC25310DB01FAE1
:1021FC0002FC634400FA02FCC2F12002BCF1004F65
:10220C0020FA02F243EB020008BF20F001007047F5
:10221C0002F1200201FA02FCC2F1200250EA4C0049
:10222C0021FA02F243EB020008BF20EADC7070478F
:10223C004FF0FF0C1CEAD0521EBF1CEAD15392EA9D
:10224C000C0F93EA0C0F6FD01A4480EA010C400279
:10225C0018BF5FEA41211ED04FF0006343EA5010D3
:10226C0043EA5111A0FB01310CF00040B1F5000F15
:10227C003EBF490041EAD3715B0040EA010062F1C4
:10228C007F02FD2A1DD8B3F1004F40EBC25008BFAE
:10229C0020F00100704790F0000F0CF0004C08BFCC
:1022AC0049024CEA502040EA51207F3AC2BFD2F199
:1022BC00FF0340EAC250704740F400004FF00003A7
:1022CC00013A5DDC12F1190FDCBF00F000407047E1
:1022DC00C2F10002410021FA02F1C2F1200200FA1F
:1022EC0002FC5FEA310040F1000053EA4C0308BFE6
:1022FC0020EADC70704792F0000F00F0004C02BF37
:10230C00400010F4000F013AF9D040EA0C0093F0B1
:10231C00000F01F0004C02BF490011F4000F013B0B
:10232C00F9D041EA0C018FE70CEAD15392EA0C0F79
:10233C0018BF93EA0C0F0AD030F0004C18BF31F0E4
:10234C00004CD8D180EA010000F00040704790F0BA
:10235C00000F17BF90F0004F084691F0000F91F05E
:10236C00004F14D092EA0C0F01D142020FD193EA24
:10237C000C0F03D14B0218BF084608D180EA0100AC
:10238C0000F0004040F0FE4040F40000704740F088
:10239C00FE4040F4400070474FF0FF0C1CEAD05256
:1023AC001EBF1CEAD15392EA0C0F93EA0C0F69D0B2
:1023BC00A2EB030280EA010C49024FEA402037D01D
:1023CC004FF0805343EA111143EA10130CF0004014
:1023DC008B4238BF5B0042F17D024FF4000C8B4204
:1023EC0024BF5B1A40EA0C00B3EB510F24BFA3EBE4
:1023FC00510340EA5C00B3EB910F24BFA3EB9103B4
:10240C0040EA9C00B3EBD10F24BFA3EBD10340EA0D
:10241C00DC001B0118BF5FEA1C1CE0D1FD2A3FF653
:10242C0050AF8B4240EBC25008BF20F00100704708
:10243C000CF0004C4CEA50207F32C2BFD2F1FF03AB
:10244C0040EAC250704740F400004FF00003013ADC
:10245C0037E792F0000F00F0004C02BF400010F480
:10246C00000F013AF9D040EA0C0093F0000F01F094
:10247C00004C02BF490011F4000F013BF9D041EAB6
:10248C000C0195E70CEAD15392EA0C0F08D14202E9
:10249C007FF47DAF93EA0C0F7FF470AF084676E7BC
:1024AC0093EA0C0F04D14B023FF44CAF08466EE795
:1024BC0030F0004C18BF31F0004CCAD130F0004263
:1024CC007FF45CAF31F000437FF43CAF5FE700BFBB
:1024DC004FF0FF3C06E000BF4FF0010C02E000BFE4
:1024EC004FF0010C4DF804CD4FEA40024FEA410386
:1024FC007FEA226C18BF7FEA236C11D001B052EA3C
:10250C00530C18BF90EA010F58BFB2EB030088BF01
:10251C00C81738BF6FEAE17018BF40F00100704770
:10252C007FEA226C02D15FEA402C05D17FEA236C52
:10253C00E4D15FEA412CE1D05DF8040B704700BF99
:10254C00844608466146FFE70FB5FFF7C9FF002830
:10255C0048BF10F1000F0FBD4DF808EDFFF7F4FF69
:10256C000CBF012000205DF808FB00BF4DF808ED02
:10257C00FFF7EAFF34BF012000205DF808FB00BF25
:10258C004DF808EDFFF7E0FF94BF012000205DF847
:10259C0008FB00BF4DF808EDFFF7D2FF94BF0120F8
:1025AC0000205DF808FB00BF4DF808EDFFF7C8FFF1
:1025BC0034BF012000205DF808FB00BF42000ED2A2
:1025CC00B2F1FE4F0BD34FF09E03B3EB126209D462
:1025DC004FEA002343F0004323FA02F070474FF018
:1025EC000000704712F1610F01D1420202D14FF08D
:1025FC00FF3070474FF00000704700BF000080BFF5
:10260C00000080BF0000803F0000803F6464000039
:10261C006464000064640000646400000142000013
:10262C000000000000000000000000000001020398
:08263C00040607080900000074
:10264400FF64556464000064640000646400006412
:082654006400006400A24A04C6
:0400000508001F3D93
:00000001FF
