:020000040800F2
:10000000005000203D150008550F0008570F00084C
:10001000590F00085B0F00085D0F0008000000008A
:100020000000000000000000000000005F0F00085A
:10003000610F000800000000630F0008650F000852
:100040008115000881150008811500088115000838
:100050008115000881150008811500088115000828
:100060008115000881150008811500088115000818
:100070008115000881150008811500088115000808
:1000800081150008811500088115000881150008F8
:1000900081150008811500088115000881150008E8
:1000A00081150008811500088115000881150008D8
:1000B00081150008811500088115000881150008C8
:1000C00081150008811500088115000881150008B8
:1000D00081150008811500088115000881150008A8
:0C00E0008115000881150008811500083A
:1000EC000B4B00221B6858434FF0E023013858613A
:1000FC009A611A6942F001021A611A69D203FCD59D
:10010C001A6922F001021A6100229A61704700BF3D
:10011C002800002038B5154D00F0ECFE2B68144A71
:10012C000024B3FBF2F3134A042013604FF0E023D6
:10013C001C6100F012FF104AD2F8FC3043F08073BF
:10014C00C2F8FC300D4B5C601A6842F001021A6078
:10015C004FF47A722B68B3FBF2F3094A1360094B24
:10016C001C60094B1C60094B1C6038BD140000203E
:10017C0040420F002800002000ED00E0001000E0DD
:10018C0024000020180000201C000020200000206B
:10019C000F4B104A5B68116830B513600E4A10683B
:1001AC00A0B15B1AB3FBF0F40C4900FB14330A68E2
:1001BC0022440B4C0A6025682B4498429CBF0132A8
:1001CC001B1A10468EBF236023600A6030BD00BF2F
:1001DC00001000E020000020240000201800002067
:1001EC001C00002008B1FFF77BBF7047014608B523
:1001FC0001B908BD4FF47A700139FFF771FF89B26C
:10020C00F6E7000083B5FFF785FF00F00FFA00F06A
:10021C005DF90121102000F007FF4FF400516248F6
:10022C0000F0FEFE01A800F0EEFE604B5E4801A956
:10023C00019300F09DFE00235D4F5E4E5E4D3B70C2
:10024C0033702B7000F01EFCDFF870815C4CDFF813
:10025C007491204600F0CEFC22785B4B1A705B4AFE
:10026C00136801331360E0B900F030F9002110225B
:10027C00574889F8001001F07FF900F00FFA3C2084
:10028C0000F0EEF8044600286BD14FF400514648BC
:10029C0000F0C6FE3C7034702C700A20FFF7A6FFED
:1002AC00D4E763781B0705D5642000F03DF9FF23E4
:1002BC0088F800302378732BD6D1607810F00803BF
:1002CC00D2D199F800A0BAF1000F1DD100F0FEF8C0
:1002DC00102251463E4801F04FF9A07900F0F0F899
:1002EC000028CAD0607900F0EBF80028C5D0E0787F
:1002FC0000F0E6F80028C0D06378A2781343BCD194
:10030C00012389F80030B8E794F802C03049072B74
:10031C0088BFA3F1080291F800E094BF40FA03F201
:10032C004CFA02F202F00102BEF1000F04D01AB92D
:10033C005FFA83FE88F800E00133102B01F8012BE3
:10034C00E5D1E07801F01CFA8246607901F018FAE8
:10035C008146A07901F014FA5246494600F09EFA03
:10036C008BE73B784BB901224FF400510E483A70A1
:10037C0032702B7000F056FE8FE72B780133DBB216
:10038C00272B01D82B7088E700232B7033784FF480
:10039C000051002B0CBF0123002303483370E9D01C
:1003AC0000F03EFE79E700BF001001400020021073
:1003BC004B0000204A0000204900002000000020D3
:1003CC004200002041000020300000202C000020C2
:1003DC003100002010B5074C206800F0E7FC606885
:1003EC0000F0EAFCA06800F0EDFCE068BDE810400D
:1003FC0000F0F0BC6400002010B50021044601F0B0
:10040C00C9FB28B32046134901F0BAFB00B32146BF
:10041C004FF0864001F002F94FF08241044601F0A2
:10042C00C3FB40B14FF08241204601F0F7F80A4976
:10043C0001F0B2FA10BD4FF04141204601F096FB9D
:10044C0030B14FF08241204601F0EAF80349EFE762
:10045C000020EFE700007F430000F0420000EE4276
:10046C004FF461632DE9F04700254FF000094FF080
:10047C00640803FB00F6104FDFF840A057F8044B5C
:10048C004946204601F072FB08B104F10044514684
:10049C00204601F0CDF901F091FB80B208FB00F091
:1004AC00B04206D80135EDB2042DE7D10020BDE8ED
:1004BC00F0870120FBE700BF6400002000006145CD
:1004CC00783810288CBF0020012070472DE9F041AE
:1004DC00FFF75EFE002405464FF000080E4F0F4E4E
:1004EC00414657F8040B01F037FB90B10134E4B2EC
:1004FC00042C47F8048C06F10406F1D110220021DB
:10050C00074801F039F8074B1D60BDE8F04100F0D9
:10051C0069BC3560EAE700BF640000205000002091
:10052C00740000204C000020642828BF64202DE9B2
:10053C00F0473A4B18701A781AB9BDE8F047FFF734
:10054C00C5BF187801F01CF9354901F025FA4FF0B8
:10055C00000A344F0546B8460426D14658F8044BD9
:10056C004946204601F002FB08B104F10044514613
:10057C00204601F019FB00B95446013E16F0FF0667
:10058C00A246EBD12946204601F00EFB78B121465C
:10059C00284601F001FA042406463868314601F079
:1005AC0047F9013C14F0FF0447F8040BF5D104247F
:1005BC004FF000081C4F57F8046B4146304601F0D1
:1005CC00D5FA68B1284606F1004101F0CFFA90B98E
:1005DC00013C14F0FF04EED1BDE8F047FFF7FABE82
:1005EC002946304601F0E0FA0028F1D04146304669
:1005FC0001F0DAFA78B90021304601F0B7FA003888
:10060C0018BF0120404201F0BFF8294601F010F953
:10061C0047F8040CDCE70120F5E700BF11000020CF
:10062C000000C842640000207400002010B5FFF7E1
:10063C00AFFD044600F06EFB10220021104800F0C4
:10064C009BFF102200210F4800F096FF00220E4B5A
:10065C001A600E4B0E4AC3E90044C3E902440D4B29
:10066C0003F1100153F8040B8B4242F8040BF9D13F
:10067C00094B64201C60BDE81040FFF755BF00BF5C
:10068C006400002074000020600000205000002056
:10069C0001000020181C00084C0000202DE9F04F30
:1006AC008BB0FFF775FD0024744A06461368A34609
:1006BC00C31A142B28BF14230027714DDFF8C481F3
:1006CC001060059355F8049B3946484601F06CFAC6
:1006DC00002840F0B7803946484601F047FAB8B1D7
:1006EC004FF0FF3318F9042092B19A4210D0664BA8
:1006FC00002153F8240001F02FFA002800F0A48008
:10070C00624B53F82430F31A4F2B98BF4BF0010B6C
:10071C000134042CD6D14FF0000A4FF07E574FF025
:10072C00000806AB0193584B02930493019B03936F
:10073C00BBF1000F40F08B80514B53F82A90039B78
:10074C00484643F8049B0393049B53F8045B2946E7
:10075C00049300F063FF4146044601F007FA08B128
:10076C0004F100444146484601F000FA10B109F189
:10077C00004399464146284601F0F8F908B105F1C5
:10078C0000452946484601F00FFA002861D0404D3B
:10079C00059800F0F5FF294601F04AF83D4901F0B3
:1007AC00FBF82146054601F0E1F980B141462046AF
:1007BC0001F0FAF958B12146284601F0EDF8394616
:1007CC00044601F0D3F9002845D0204607460AF12B
:1007DC00010ABAF1040FABD100244FF07E59002569
:1007EC00DFF8A0B0029B494653F8048B38460293BD
:1007FC00019B53F804AB019301F0CCF950B941467D
:10080C00504600F00BFF394601F012F8414600F05B
:10081C0007FF8246029B2946504643F804AC01F080
:10082C009BF92946C8B1404601F096F910B9174B0F
:10083C0043F824600134042CD4D10BB0BDE8F04F44
:10084C00FFF7C8BD01234DE74FF0010B60E7C14630
:10085C0075E7114D9CE73846B8E7504601F0A4F90E
:10086C0050B90021504601F081F9003818BF012021
:10087C0040420BF80400DDE70120FAE74C000020B1
:10088C007400002060000020640000205000002054
:10089C00000048430050C3470000C8432DE9F04F07
:1008AC0089B014460E46FFF7A7FD05463046FFF704
:1008BC00A3FD06462046FFF79FFD6D4B04461878B6
:1008CC0000F05EFF6B4901F067F831460090284656
:1008DC0000F0A4FE2146074600F0A2FE314604902B
:1008EC00284600F09DFE2146054600F097FE214665
:1008FC000590284600F094FE21460690384600F0FC
:10090C008DFE0DF1100A56464FF000084FF07E5543
:10091C000027079056F8044B3946204601F026F97B
:10092C0008B104F100442946204601F03DF930B3EA
:10093C00019408F101085FFA88F8B8F1040F019DE1
:10094C00E8D14D4B4FF0000903934C4B00279846D0
:10095C004B4E029301995AF8040B01F01DF80099C3
:10096C0000F066FF3946054601F01EF948B13078B3
:10097C0000F00AFF044696F802B028460FE00195F5
:10098C00D7E7707800F000FF39460446284696F801
:10099C0003B001F0EBF80028EFD005F10040214640
:1009AC0000F046FF334900F0F7FF3946044601F0EA
:1009BC00FBF868B1584600F0E7FE2E4900F0ECFF5A
:1009CC002146834601F0F0F800284AD058460446E8
:1009DC002046009901F0E8F800B1009C3946284601
:1009EC0001F0E2F800283ED13946284601F0BEF865
:1009FC00003818BF01204042039B043653F8045BB7
:100A0C00039300F0C1FE214600F012FF294600F0CE
:100A1C000FFF029B43F8040B029309F101035FFAE9
:100A2C0083F9B9F1040F95D10021D8F8000001F039
:100A3C0093F8D0B10021D8F8040001F08DF8A0B1E2
:100A4C000021D8F8080001F087F870B10021D8F81F
:100A5C000C0001F081F840B109B0BDE8F04FFFF790
:100A6C0035BD2046B3E70120C6E709B0BDE8F08FDD
:100A7C00110000200000C842081C0008740000206F
:100A8C000100002007B50121082000F0CDFA01A8D3
:100A9C0000F0B9FA4FF430410B4800F0C1FA0B4B9F
:100AAC0001A90948019300F063FA4FF48043ADF8B3
:100ABC0004304823044801A98DF8073000F058FA97
:100ACC0003B05DF804FB00BF000C014000B0031044
:100ADC00F8B50024064625460123A34033424FF4C3
:100AEC0000411248DFB21DD000F09AFA4FF40051C9
:100AFC000E4800F097FA1020FFF774FB4FF480417A
:100B0C000A4800F087FA00B13D434FF40051074802
:100B1C0000F086FA01341020FFF764FB082CDBD1BF
:100B2C002846F8BD00F07EFAE0E700BF000C01405B
:100B3C002DE9FF410E46044618B9002004B0BDE86B
:100B4C00F081002303704370837080234FF42041A5
:100B5C00C370037143718371244800F061FA4FF440
:100B6C008051224800F05EFA1020FFF73BFB09256C
:100B7C00DFF87C8001AF18F8010BFFF7A9FF013DEE
:100B8C0007F8010B1020FFF72DFB15F0FF05F2D134
:100B9C004FF41041154800F043FA9DF80530732BC3
:100BAC0003D0002EC9D0412BC7D19DF806205A2A5C
:100BBC00C3D19DF80720732B6FEA020262709DF877
:100BCC00082023706FEA0202A27001D00120B5E761
:100BDC009DF80930E3709DF80A3023719DF80B30B5
:100BEC0063719DF80C30A371F0E700BF000C01405D
:100BFC00281C00080121FFF79BBF000030B589B00D
:100C0C00044600F041FA01A800F062FC002540F611
:100C1C000F632046CDE9015300F079FC01A9204671
:100C2C0000F016FB04A800F05CFC0C4B204604A959
:100C3C000493ADF81850ADF8165000F053FB204655
:100C4C0004A900F093FB204604A900F0CFFB20463A
:100C5C0004A900F009FC09B030BD00BF6000010020
:100C6C00F8B505460F4610460021164600F07EFFEB
:100C7C00F0B106F100444FF07E51204600F08AFF9F
:100C8C00F0B92046224900F0D3FD00F097FF84B262
:100C9C00002130460FB300F087FFA0B12846002199
:100CAC0000F03EFC21462846BDE8F84000F036BC7A
:100CBC000021304600F078FF0446D8B13446DAE71C
:100CCC004FF46164E4E72846002100F027FC21463C
:100CDC002846BDE8F84000F023BC00F065FF60B189
:100CEC003946284600F020FC21462846BDE8F8404D
:100CFC0000F018BC002FE6D13C462846002100F03D
:100D0C0011FC21462846BDE8F84000F00DBC00BFA0
:100D1C000000614513B503240121032000F090F974
:100D2C0001210C2000F080F9CF211C4800F07AF949
:100D3C0003211B4800F076F901A800F064F9194B67
:100D4C0001A91648019300F013F901A91448ADF854
:100D5C00044000F00DF94FF08040FFF74FFF1248B0
:100D6C00FFF74CFF18238DF80730CF2301A90B4850
:100D7C00ADF8043000F0FCF801A90948ADF80440C6
:100D8C0000F0F6F801214FF0804000F0B4FB012197
:100D9C00054800F0B0FB02B010BD00BF00080140D8
:100DAC00000C0140CF00031000040040024601215A
:100DBC004FF08040FFF754BF024600214FF08040B7
:100DCC00FFF74EBF024601210148FFF749BF00BFA4
:100DDC0000040040024600210148FFF741BF00BF5C
:100DEC000004004010B500242046FFF7DFFF20462A
:100DFC00FFF7E2FF2046FFF7E5FF2046BDE8104075
:100E0C00FFF7E8BF374B82B01A6842F001021A6054
:100E1C005968354A0A405A601A6822F0847222F4E2
:100E2C0080321A601A6822F480221A605A6822F4FE
:100E3C00FE025A604FF41F029A6000220092019247
:100E4C001A6842F480321A601A6802F40032019275
:100E5C00009A01320092019A1AB9009AB2F5A06F69
:100E6C00F2D11A6812F4003218BF01220192019AD1
:100E7C00012A30D11D4A116841F01001116011682E
:100E8C0021F003011160116841F0020111605A68F0
:100E9C005A605A685A605A6842F480625A605A68BA
:100EAC0022F47C125A605A6842F4E8125A601A68AA
:100EBC0042F080721A601A689201FCD55A6822F0CE
:100ECC0003025A605A6842F002025A605A6802F0F1
:100EDC000C02082AFAD14FF00062054B9A6002B05E
:100EEC00704700BF001002400000FFF800200240D5
:100EFC0000ED00E00F4A536803F00C03082B17D1E8
:100F0C0053685168C3F38343C80303F102030AD443
:100F1C0009494B4352680949C2F303128A5CD34016
:100F2C00074A1360704751688903F1D40549F0E70B
:100F3C00044BEFE70010024000093D00311C000893
:100F4C001400002000127A007047FEE7FEE7FEE76F
:100F5C00FEE770477047704770474FF0E0231A69FF
:100F6C0004280CBF42F0040222F004021A617047FC
:100F7C00F0B5CB780E88DA0648BF8A7803F00F05F7
:100F8C0048BF15430A78C2B1002101274FF00F0C5E
:100F9C00026807FA01F434EA060E0AD1282B2AD18A
:100FAC0044618C000CFA04FE22EA0E0205FA04F4E9
:100FBC00224301310829ECD10260FF2E1AD90021FD
:100FCC0001274FF00F0C426801F1080407FA04F4F2
:100FDC0034EA060E0AD1282B11D144618C000CFA8C
:100FEC0004FE22EA0E0205FA04F422430131082918
:100FFC00EAD14260F0BD482BD3D10461D1E7482B34
:10100C0008BF0461EAE74FF6FF73038040F2024326
:10101C004380704780680840003818BF0120704733
:10102C000161704741617047044B9A6911B10243E9
:10103C009A61704722EA0002FAE700BF00100240F2
:10104C00044BDA6911B10243DA61704722EA0002FB
:10105C00FAE700BF00100240044BDA6811B10243FA
:10106C00DA60704722EA0002FAE700BF0010024083
:10107C00044B1A6911B102431A61704722EA00024B
:10108C00FAE700BF0010024008B5614B98420BD143
:10109C0001214FF40060FFF7DFFF00214FF40060E7
:1010AC00BDE80840FFF7D8BFB0F1804F09D101214E
:1010BC000846FFF7DDFF00210120BDE80840FFF7DF
:1010CC00D7BF544B984206D101210220FFF7D0FF25
:1010DC0000210220F1E7504B984206D10121042057
:1010EC00FFF7C6FF00210420E7E74C4B984206D1DE
:1010FC0001210820FFF7BCFF00210820DDE7484B49
:10110C00984206D101211020FFF7B2FF00211020D8
:10111C00D3E7444B984206D101212020FFF7A8FFCA
:10112C0000212020C9E7404B984208D101214FF4FF
:10113C000050FFF791FF00214FF40050B0E73B4BFC
:10114C00984208D101214FF40020FFF785FF0021C0
:10115C004FF40020A4E7364B984208D101214FF4FC
:10116C008010FFF779FF00214FF4801098E7314B86
:10117C00984208D101214FF40010FFF76DFF0021B8
:10118C004FF400108CE72C4B984206D101214020E3
:10119C00FFF76EFF002140208FE7284B984206D1C5
:1011AC0001218020FFF764FF0021802085E7244B7C
:1011BC00984208D101214FF48070FFF759FF0021AC
:1011CC004FF4807079E71F4B984208D101214FF4FE
:1011DC008030FFF741FF00214FF4803060E71A4B5D
:1011EC00984208D101214FF40030FFF735FF002160
:1011FC004FF4003054E7154B984208D101214FF4BD
:10120C008020FFF729FF00214FF4802048E708BD1C
:10121C00002C01400004004000080040000C00407D
:10122C00001000400014004000340140004C01400C
:10123C00005001400054014000180040001C0040C8
:10124C0000200040004001400044014000480140A3
:10125C00224A038890429BB212D002F5006290425F
:10126C000ED0B0F1804F0BD0A2F59832904207D03F
:10127C0002F58062904203D002F58062904209D15F
:10128C004A8823F070031343CA8823F440739BB23B
:10129C00134306E0124A904203D002F5806290425A
:1012AC00F2D103808B8883850B8803850B4B984286
:1012BC000FD003F5006398420BD003F540639842BE
:1012CC0007D003F58063984203D003F580639842FE
:1012DC0001D10B7A0386012383827047002C0140D5
:1012EC0000100040038C70B523F001031B041B0C91
:1012FC000384038C8488028B0D8822F07302120401
:10130C00120C4E882A4323F002030D891B0435432B
:10131C001B0C2B43144DA4B2A8429BB20FD005F565
:10132C000065A8420BD005F54065A84207D005F52D
:10133C008065A84203D005F58065A8420ED14D8981
:10134C0023F008032B438D8823F00403CE892B4311
:10135C008D8924F4407435432C43A4B284800283D9
:10136C00CA888286038470BD002C0140038C70B542
:10137C0023F010031B041B0C0384038C8488028B46
:10138C000D8822F4E6421204120C42EA05224E8821
:10139C000D8923F020031B0435431B0C43EA051372
:1013AC00114DA4B2A84292B29BB203D005F50065D0
:1013BC00A84213D14D8923F0800343EA05134FF65D
:1013CC00BF751D408B88CE8945EA0315ABB28D895C
:1013DC0024F44064354344EA8504A4B28480028337
:1013EC00CA880287038470BD002C0140038C70B541
:1013FC0023F480731B041B0C0384038C8288848B62
:10140C000D8824F073042404240C4E882C4323F4FC
:10141C0000730D891B0435431B0C43EA0523114D46
:10142C0092B2A8429BB203D005F50065A84213D135
:10143C004D8923F4006343EA05234FF6FF351D4025
:10144C008B88CE8945EA0325ABB28D8922F44052B4
:10145C00354342EA051292B28280CA88848382871D
:10146C00038470BD002C0140038C70B523F48053B1
:10147C001B041B0C0384038C8488828B0D8822F440
:10148C00E6421204120C42EA05224E880D8923F41E
:10149C0000531B0435431B0C43EA05330B4DA4B21C
:1014AC00A84292B29BB203D005F50065A84205D1C3
:1014BC008D8924F4804444EA8514A4B28480828308
:1014CC00CA88A0F84020038470BD00BF002C0140E6
:1014DC004FF6FF73838000230380C3804380037225
:1014EC0070470023038043808380C3800381438142
:1014FC008381C3817047038821B19BB243F0010300
:10150C000380704723F001031B041B0CF8E70389CD
:10151C0023F007031B041B0C038170478186704763
:10152C000187704781877047A0F840107047000012
:10153C00FFF768FC0A480B490B4A914204D250F859
:10154C00043B41F8043BF8E70849094A002391425F
:10155C0002D241F8043BFAE7FEF754FE00F00AB859
:10156C00441C000800000020180000201800002077
:10157C0084000020FEE70000830730B546D0844687
:10158C00841805E0634603F8011B9D0703D09C46B5
:10159C00A445F7D130BD013A0244A2EB0C02032A58
:1015AC0029D9CCB204EB04240F2A04EB04442FD920
:1015BC00A2F1100C2CF00F0C03F11005AC44C3E994
:1015CC000044C3E9024410336345F8D112F00C0F08
:1015DC0002F00F0E18D01A462EF0030C9C44AEF1FC
:1015EC00040542F8044B6245FBD125F00304043397
:1015FC000EF003022344002ACCD0C9B21A4403F8DB
:10160C00011B9342FBD130BD7246F4E70346C6E79B
:10161C009646E0E780F0004002E000BF81F0004118
:10162C0042001FBF5FEA410392EA030F7FEA226C7C
:10163C007FEA236C6AD04FEA1262D2EB1363C1BF0C
:10164C00D218414048404140B8BF5B42192B88BF7B
:10165C00704710F0004F40F4000020F07F4018BF9E
:10166C00404211F0004F41F4000121F07F4118BFBE
:10167C00494292EA030F3FD0A2F1010241FA03FC66
:10168C0010EB0C00C3F1200301FA03F100F000434E
:10169C0002D5494260EB4000B0F5000F13D3B0F116
:1016AC00807F06D340084FEA310102F10102FE2A85
:1016BC0051D2B1F1004F40EBC25008BF20F00100F5
:1016CC0040EA03007047490040EB0000013A28BF94
:1016DC00B0F5000FEDD2B0FA80FCACF1080CB2EB17
:1016EC000C0200FA0CF0AABF00EBC2505242184395
:1016FC00BCBFD0401843704792F0000F81F400013A
:10170C0006BF80F400000132013BB5E74FEA41030C
:10171C007FEA226C18BF7FEA236C21D092EA030F78
:10172C0004D092F0000F08BF0846704790EA010FF2
:10173C001CBF0020704712F07F4F04D1400028BF1F
:10174C0040F00040704712F100723CBF00F5000001
:10175C00704700F0004343F0FE4040F40000704737
:10176C007FEA226216BF08467FEA236301464202E3
:10177C0006BF5FEA412390EA010F40F480007047F6
:10178C004FF0000304E000BF10F0004348BF40429C
:10179C005FEA000C08BF704743F0964301464FF0D8
:1017AC0000001CE050EA010208BF70474FF0000334
:1017BC000AE000BF50EA010208BF704711F0004375
:1017CC0002D5404261EB41015FEA010C02BF844645
:1017DC000146002043F0B64308BFA3F18053A3F5A4
:1017EC000003BCFA8CF2083AA3EBC25310DB01FAEB
:1017FC0002FC634400FA02FCC2F12002BCF1004F6F
:10180C0020FA02F243EB020008BF20F001007047FF
:10181C0002F1200201FA02FCC2F1200250EA4C0053
:10182C0021FA02F243EB020008BF20EADC70704799
:10183C004FF0FF0C1CEAD0521EBF1CEAD15392EAA7
:10184C000C0F93EA0C0F6FD01A4480EA010C400283
:10185C0018BF5FEA41211ED04FF0006343EA5010DD
:10186C0043EA5111A0FB01310CF00040B1F5000F1F
:10187C003EBF490041EAD3715B0040EA010062F1CE
:10188C007F02FD2A1DD8B3F1004F40EBC25008BFB8
:10189C0020F00100704790F0000F0CF0004C08BFD6
:1018AC0049024CEA502040EA51207F3AC2BFD2F1A3
:1018BC00FF0340EAC250704740F400004FF00003B1
:1018CC00013A5DDC12F1190FDCBF00F000407047EB
:1018DC00C2F10002410021FA02F1C2F1200200FA29
:1018EC0002FC5FEA310040F1000053EA4C0308BFF0
:1018FC0020EADC70704792F0000F00F0004C02BF41
:10190C00400010F4000F013AF9D040EA0C0093F0BB
:10191C00000F01F0004C02BF490011F4000F013B15
:10192C00F9D041EA0C018FE70CEAD15392EA0C0F83
:10193C0018BF93EA0C0F0AD030F0004C18BF31F0EE
:10194C00004CD8D180EA010000F00040704790F0C4
:10195C00000F17BF90F0004F084691F0000F91F068
:10196C00004F14D092EA0C0F01D142020FD193EA2E
:10197C000C0F03D14B0218BF084608D180EA0100B6
:10198C0000F0004040F0FE4040F40000704740F092
:10199C00FE4040F4400070474FF0FF0C1CEAD05260
:1019AC001EBF1CEAD15392EA0C0F93EA0C0F69D0BC
:1019BC00A2EB030280EA010C49024FEA402037D027
:1019CC004FF0805343EA111143EA10130CF000401E
:1019DC008B4238BF5B0042F17D024FF4000C8B420E
:1019EC0024BF5B1A40EA0C00B3EB510F24BFA3EBEE
:1019FC00510340EA5C00B3EB910F24BFA3EB9103BE
:101A0C0040EA9C00B3EBD10F24BFA3EBD10340EA17
:101A1C00DC001B0118BF5FEA1C1CE0D1FD2A3FF65D
:101A2C0050AF8B4240EBC25008BF20F00100704712
:101A3C000CF0004C4CEA50207F32C2BFD2F1FF03B5
:101A4C0040EAC250704740F400004FF00003013AE6
:101A5C0037E792F0000F00F0004C02BF400010F48A
:101A6C00000F013AF9D040EA0C0093F0000F01F09E
:101A7C00004C02BF490011F4000F013BF9D041EAC0
:101A8C000C0195E70CEAD15392EA0C0F08D14202F3
:101A9C007FF47DAF93EA0C0F7FF470AF084676E7C6
:101AAC0093EA0C0F04D14B023FF44CAF08466EE79F
:101ABC0030F0004C18BF31F0004CCAD130F000426D
:101ACC007FF45CAF31F000437FF43CAF5FE700BFC5
:101ADC004FF0FF3C06E000BF4FF0010C02E000BFEE
:101AEC004FF0010C4DF804CD4FEA40024FEA410390
:101AFC007FEA226C18BF7FEA236C11D001B052EA46
:101B0C00530C18BF90EA010F58BFB2EB030088BF0B
:101B1C00C81738BF6FEAE17018BF40F0010070477A
:101B2C007FEA226C02D15FEA402C05D17FEA236C5C
:101B3C00E4D15FEA412CE1D05DF8040B704700BFA3
:101B4C00844608466146FFE70FB5FFF7C9FF00283A
:101B5C0048BF10F1000F0FBD4DF808EDFFF7F4FF73
:101B6C000CBF012000205DF808FB00BF4DF808ED0C
:101B7C00FFF7EAFF34BF012000205DF808FB00BF2F
:101B8C004DF808EDFFF7E0FF94BF012000205DF851
:101B9C0008FB00BF4DF808EDFFF7D2FF94BF012002
:101BAC0000205DF808FB00BF4DF808EDFFF7C8FFFB
:101BBC0034BF012000205DF808FB00BF42000ED2AC
:101BCC00B2F1FE4F0BD34FF09E03B3EB126209D46C
:101BDC004FEA002343F0004323FA02F070474FF022
:101BEC000000704712F1610F01D1420202D14FF097
:101BFC00FF3070474FF00000704700BF000080BFFF
:101C0C00000080BF0000803F0000803F6464000043
:101C1C00646400006464000064640000014200001D
:101C2C0000000000000000000000000000010203A2
:081C3C0004060708090000007E
:101C4400FF64640000646400006464000064640071
:081C54000064000000A24A0434
:040000050800153D9D
:00000001FF
