:020000040800F2
:100000000050002015200008351900083719000895
:10001000391900083B1900083D19000800000000CC
:100020000000000000000000000000003F19000870
:100030004119000800000000431900084519000894
:1000400059200008592000085920000859200008AC
:10005000592000085920000859200008592000089C
:10006000592000085920000859200008592000088C
:10007000592000085920000859200008592000087C
:10008000592000085920000859200008592000086C
:10009000592000085920000859200008592000085C
:1000A000592000085920000859200008592000084C
:1000B000592000085920000859200008592000083C
:1000C000592000085920000859200008592000082C
:1000D000592000085920000859200008592000081C
:0C00E00059200008592000085920000891
:1000EC0038B505460C4600F0E7FDA84215D0214670
:1000FC00284600F0CDFD0C4B1B789BB10B4B1A78AE
:10010C00AA420FD15B78191B18BF01210022084BA2
:10011C00C9B21970074B1A7003E000F0D3FDA0426E
:10012C00E5D138BD0121F1E7410000203C00002061
:10013C00400000203900002010B50446807900F002
:10014C00F7FD08B9002010BD607900F0F1FD002822
:10015C00F8D0E07800F0ECFD003818BF0120F2E791
:10016C000023024A1370024A137070472C000020BF
:10017C002D00002008B50023094A1380094A13708A
:10018C00094A1370094A1370094A13700022094B6B
:10019C001A6000F019FC084B1860084B186008BD79
:1001AC003A00002039000020180000203F000020F9
:1001BC00190000201C00002020000020240000203A
:1001CC00642310B50D4C23705F232046637000F040
:1001DC000BFB0B4B61781870207800F059FD002355
:1001EC00084A1370084A1370084A1370084A1360BF
:1001FC00FFF7C0FFBDE81040FFF7B2BF3C00002086
:10020C0041000020380000203E000020400000206B
:10021C00300000202DE9F04F8BB0054600F0D4FBE8
:10022C00044615B12B78732B05D0FFF7A3FF0020E4
:10023C000BB0BDE8F08FA84BB5F80170B3F8008097
:10024C001F8000F039FD064600F03CFD17F001035D
:10025C00014605937CD027EA080818F4804F49D052
:10026C0064210846FFF73CFF18F4005F70D0284665
:10027C00FFF762FF0390002867D00123974A1370A1
:10028C00687901F0E9FF00F059FD0021049002F0BB
:10029C00D9F920B1049B03F10049CDF81090E8780E
:1002AC0001F0DAFF0646687901F0D6FF8046A8799E
:1002BC0001F0D2FF09AB019308AB324641460093E3
:1002CC0007AB00F06FFDDDF820800021404602F006
:1002DC00B9F94FF0000B099E00283CD05946304626
:1002EC0008F1004802F0AEF908B106F100464FF0F3
:1002FC00FF3941E007F41043B3F5104F0FD018F459
:10030C00004F04D0372E38BF3726053EF6B218F40E
:10031C00805F04D05F2E28BF5F260536F6B207F04B
:10032C005003502B0FD018F0400F04D0372938BF92
:10033C0037210539C9B218F0100F04D05F2928BF36
:10034C005F210531C9B230468CE70422644B1A7028
:10035C000023039394E75946304602F073F908B131
:10036C0006F100460021404602F08AF9002814BF2D
:10037C004FF001094FF0FF39012FDFF868A140F071
:10038C008580A87900F0D4FCA8B15749049802F0F4
:10039C0059F980B90021404602F04AF958B953493D
:1003AC00404601F0B1FF314602F04CF918B900F0AB
:1003BC008FFC002871D100234D4A13704D4AC2F8AE
:1003CC0000B04D4A13704D4B1C604D4B1C60002F00
:1003DC007FD12846FFF7B0FE00287AD0384600F0CF
:1003EC0077FC002875D19AF8003023B9454B1C6076
:1003FC0001238AF80030394B1B78002B3FF417AFE0
:10040C00039B5BB99AF80030002B3FF410AF3D4BC7
:10041C001B68E31AB3F5FA6FFFF409AF3A4D3B4E84
:10042C002B7833B147F22F523368E31A93427FF69D
:10043C00FEAE00F011FD00F03FFC8DF8240000F042
:10044C0041FC8DF8250009A800F0E0F90122244BAD
:10045C0034602A70002800F0C8802D49BDF8244073
:10046C000C802C490A7000221C490A701870042355
:10047C000024294A1370294B1C7000F0A5FA284B54
:10048C00963818608AF800400120D1E6059B002BB5
:10049C0091D1244B059A1A708DE71549184A91F998
:1004AC0000304B45154B06D081F8009011491C606B
:1004BC001460C1F800B01E681C601368E31AB3F531
:1004CC00167F03D3174F3B78042B2DD900230A4AF0
:1004DC00137000238DE700BF3A000020400000207D
:1004EC003E000020390000209A99993E3333B33EE8
:1004FC00190000201C0000203F00002020000020DC
:10050C00240000203400002038000020300000209F
:10051C003C000020410000202D0000202C00002079
:10052C0028000020180000200123324A099913707A
:10053C00084601F0E1FD089901F09AFF014601F02F
:10054C00DBFD0546A01B142828BF142001F084FEF7
:10055C00DFF8A4800146284601F0D6FE274901F0B9
:10056C0087FFD8F8001001F0C7FDC8F8000000F0B4
:10057C00A3FB054600F0A6FBD8F8009006464FF00A
:10058C007E51484602F072F8D0B1632D10D8013577
:10059C00EDB24FF07E51484601F0ACFD3B78C8F807
:1005AC00000001333B7031462846FFF799FD90E778
:1005BC00322E02D9013EF6B2EBE7C8F800B088E75C
:1005CC0048460F4902F048F80028ECD0322D07D9E4
:1005DC00013DEDB24FF07E51484601F08DFDDDE757
:1005EC00632EEAD80136F6B2F4E703221A700A2316
:1005FC003EE700BF3F0000201C00002000007A44B2
:10060C00000080BF38B50E4D04462878A0B1A4B1C7
:10061C0000F0DAF90B490C4A0B68C31A952B08D970
:10062C0013780860B3FA83F35B0913702B78013BE2
:10063C002B7001201378237038BD2046FCE700BFD7
:10064C002D000020280000202C000020008880B203
:10065C00704708B501F05CFCBDE80840342001F09F
:10066C006BBC01F061BC0000064A08B520F4806345
:10067C00934205D101F08CFC031F5842584108BD30
:10068C000020FCE700F8000800F17843A3F578435C
:10069C00B3F5006F70B505460E460FD210F001048D
:1006AC000CD101F095FC042806D1288880B2331AAD
:1006BC0058425841C0B270BD2046FBE70020FAE713
:1006CC0058B10378323B322B06D840783238322876
:1006DC008CBF0020012070470020704770B50022AD
:1006EC00044641F221064FF6FF70C2F3460334F87C
:1006FC00133002F00101C9000B41082180EA0320EC
:10070C0080B210F4004F0CBF002333464500ADB24D
:10071C0085EA03004B1E13F0FF01F2D101320C2AC3
:10072C00E3D170BD38B50C4602890A70110A6170AC
:10073C004CF2172105888D4217D14188022914D11A
:10074C004AF25A51C5898D420FD141894A404FF620
:10075C00FF718A4209D18589FFF7C0FF854204D118
:10076C002046FFF7ADFFC0B238BD0020FBE770B5E7
:10077C000C4601F11006451A2819FFF767FF24F8FB
:10078C00020BB442F8D170BD2DE9F04300251022C4
:10079C00002187B00446A84601F05AFC2F46104EA3
:1007AC00DFF84090304602A9FFF7E1FF01A902A84B
:1007BC00FFF7B8FF50B1039B17B15A1B002A05DD98
:1007CC001D46B0460746BDF80420A28110364E45A2
:1007DC00E8D12046C4E90185277007B0BDE8F08355
:1007EC0000F80008000001081FB5044610B90020ED
:1007FC0004B010BD6846FFF7C7FF9DF80030002B12
:10080C00F5D0BDF80C3001202380F1E72DE9F04F35
:10081C008FB00746FFF754FF002872D002A8FFF7ED
:10082C00B3FF9DF80850002D5BD09DF814203B7849
:10083C009A4204D19DF815207B789A4263D0039E8E
:10084C006FF3090634464FF6FF7B06F5806AA04627
:10085C0004F110094046FFF7F9FE584543D108F161
:10086C000208C845F6D1FFF7F4FE5CB9002D3FD065
:10087C00264B274C9E4218BF1C462046FFF7F4FE21
:10088C0000283CD00DB1049D0135224B06A8CDE9C2
:10089C0006353B882646ADF82030DB43ADF82230D8
:1008AC00FFF71CFF4AF25A534FF6FF78ADF82400BD
:1008BC00ADF8263006AD04F1100735F8021B4145A2
:1008CC0018D10236B742F8D1FFF7CBFE20460AA961
:1008DC00FFF74DFF01A90AA8FFF724FF0FB0BDE8F1
:1008EC00F08F0A4EAEE7CA454C46B0D10024BAE7A9
:1008FC003446C2E73046FFF7C7FE0028E1D1FFF7C8
:10090C00B0FE0020EAE70220E8E700BF00F800088C
:10091C0000FC000817C202000B4B00221B68584356
:10092C004FF0E023013858619A611A6942F00102D4
:10093C001A611A69D203FCD51A6922F001021A61F4
:10094C0000229A61704700BF5400002038B5154D45
:10095C0000F0C0FF2B68144A0024B3FBF2F3134AD7
:10096C00042013604FF0E0231C6100F0E6FF104AF6
:10097C00D2F8FC3043F08073C2F8FC300D4B5C6055
:10098C001A6842F001021A604FF47A722B68B3FBBA
:10099C00F2F3094A1360094B1C60094B1C60094BAC
:1009AC001C6038BD1400002040420F005400002091
:1009BC0000ED00E0001000E050000020440000209A
:1009CC00480000204C0000200F4B104A5B68116857
:1009DC0030B513600E4A1068A0B15B1AB3FBF0F48B
:1009EC000C4900FB14330A6822440B4C0A6025683E
:1009FC002B4498429CBF01321B1A10468EBF2360B9
:100A0C0023600A6030BD00BF001000E04C000020E5
:100A1C0050000020440000204800002008B1FFF7DF
:100A2C007BBF7047014608B501B908BD4FF47A7019
:100A3C000139FFF771FF89B2F6E70000102200219F
:100A4C00014801F005BB00BF5D00002083B5FFF736
:100A5C007DFF00F0B1FAFFF7B3FB00F0FDF90121C7
:100A6C00102000F0D1FF4FF40051754800F0C8FF82
:100A7C0001A800F0B8FF734B714801A9019300F075
:100A8C0067FF0023704F714E714D3B7033702B70AC
:100A9C0000F0E8FCDFF8BC816F4CDFF8C091204619
:100AAC0000F098FD22786E4B1A706E4A1368013371
:100ABC00136030BB00F0D0F9002389F80030FFF749
:100ACC00BDFFFFF757FB00F0B7FA002000F000F96C
:100ADC00002840F0828001A8FFF794FD00287ED00A
:100AEC009DF804304FF400515548002B72D000F0A3
:100AFC0089FF002333702B703B700A20FFF792FFA5
:100B0C00CAE763781B0707D5642000F0D3F9FF23ED
:100B1C0088F80030FFF724FB2378732BCAD1637855
:100B2C0013F0080AC6D199F80030E3B900F094F933
:100B3C00FFF784FFFFF71EFBA07900F0F9F80028FF
:100B4C00C1D0607900F0F4F80028BCD0E07800F057
:100B5C00EFF80028B7D06378A2781343B3D1012300
:100B6C0089F80030AFE73C48FFF754FB20B189F817
:100B7C0000A0FFF763FFA6E794F802C061783A4A39
:100B8C00072888BFA0F1080392F800E094BF41FA4F
:100B9C0000F34CFA03F303F00103BEF1000F04D091
:100BAC001BB95FFA80FE88F800E00130102802F8CB
:100BBC00013BE5D1E07801F04FFB8246607901F012
:100BCC004BFB8146A07901F047FB5246494600F0A9
:100BDC0033FB78E700F014FF8BE7FFF7C1FA3C20FA
:100BEC0000F076F8044640B94FF40051144800F078
:100BFC0007FF3C7034702C707FE73B784BB90122B7
:100C0C004FF400510E483A7032702B7000F0FAFE1F
:100C1C0073E72B780133DBB2272B01D82B706CE7F1
:100C2C0000232B7033784FF40051002B0CBF0123A1
:100C3C00002303483370E9D000F0E2FE5DE700BF0B
:100C4C0000100140002002107700002076000020E8
:100C5C0075000020000000206E0000206D000020B8
:100C6C005C000020580000205D00002010B5074CEF
:100C7C00206800F08BFD606800F08EFDA06800F02D
:100C8C0091FDE068BDE8104000F094BD900000209C
:100C9C00A0F13203322B09D8A1F13203322B05D843
:100CAC00034B1870034B01201970704700207047DC
:100CBC000200002001000020014B1878704700BF93
:100CCC0002000020014B1878704700BF0100002083
:100CDC004FF461632DE9F04700254FF000094FF008
:100CEC00640803FB00F6104FDFF840A057F8044BE4
:100CFC004946204601F0A6FC08B104F100445146D7
:100D0C00204601F001FB01F0C5FC80B208FB00F0AD
:100D1C00B04206D80135EDB2042DE7D10020BDE874
:100D2C00F0870120FBE700BF900000200000614528
:100D3C00783810288CBF00200120704710B5002196
:100D4C00044601F093FC28B32046134901F084FCBF
:100D5C0000B321464FF0864001F0CCF94FF08241B0
:100D6C00044601F08DFC40B14FF08241204601F069
:100D7C00C1F90A4901F07CFB10BD4FF041412046FE
:100D8C0001F060FC30B14FF08241204601F0B4F923
:100D9C000349EFE70020EFE700007F430000F0423B
:100DAC000000EE422DE9F0470D46DDE908A9144696
:100DBC009846002B4BD0BAF1000F48D0B9F1000F78
:100DCC0045D0FFF7BBFF07462846FFF7B7FF06469F
:100DDC002046FFF7B3FF39460546384601F094FA32
:100DEC0031460446304601F08FFA0146204601F0A8
:100DFC0083F94FF07E51044601F042FC48B34FF0AA
:100E0C007E504FF07A5101F07FFA4FF07D5101F096
:100E1C0073F901460446384601F076FA2146C8F8C3
:100E2C000000304601F070FA4FF07C51CAF8000017
:100E3C00284601F069FA294601F066FA4FF07C5118
:100E4C0001F05AF9294601F05FFAC9F80000BDE833
:100E5C00F0872046D5E700002DE9F041FFF7B4FDFF
:100E6C00002405464FF000080E4F0F4E414657F830
:100E7C00040B01F0DDFB90B10134E4B2042C47F813
:100E8C00048C06F10406F1D110220021074801F070
:100E9C00DFF8074B1D60BDE8F04100F093BC3560F6
:100EAC00EAE700BF900000207C000020A00000209A
:100EBC0078000020642828BF64202DE9F0473A4BC5
:100ECC0018701A781AB9BDE8F047FFF7C5BF187843
:100EDC0001F0C2F9354901F0CBFA4FF0000A344F5A
:100EEC000546B8460426D14658F8044B49462046D8
:100EFC0001F0A8FB08B104F100445146204601F072
:100F0C00BFFB00B95446013E16F0FF06A246EBD1DA
:100F1C002946204601F0B4FB78B12146284601F061
:100F2C00A7FA042406463868314601F0EDF9013C75
:100F3C0014F0FF0447F8040BF5D104244FF000081B
:100F4C001C4F57F8046B4146304601F07BFB68B1EF
:100F5C00284606F1004101F075FB90B9013C14F0F4
:100F6C00FF04EED1BDE8F047FFF780BE29463046BE
:100F7C0001F086FB0028F1D04146304601F080FBA1
:100F8C0078B90021304601F05DFB003818BF012014
:100F9C00404201F065F9294601F0B6F947F8040C16
:100FAC00DCE70120F5E700BF130000200000C84279
:100FBC0090000020A000002010B5FFF705FD0446AE
:100FCC0000F098FB10220021124801F041F8102289
:100FDC000021114801F03CF80022104B1A60104B14
:100FEC00104AC3E90044C3E902440F4B03F110015A
:100FFC0053F8040B8B4242F8040BF9D164205F22A6
:10100C000A4B1C600A4B18700A4B1A70BDE8104052
:10101C00FFF750BF90000020A00000208C000020A3
:10102C007C00002003000020F0260008780000203F
:10103C0002000020010000202DE9F04F8BB0FFF7DB
:10104C00C3FC0024744A06461368A346C31A142B27
:10105C0028BF14230027714DDFF8C481106005935D
:10106C0055F8049B3946484601F00AFB002840F02D
:10107C00B7803946484601F0E5FAB8B14FF0FF3376
:10108C0018F9042092B19A4210D0664B002153F803
:10109C00240001F0CDFA002800F0A480624B53F834
:1010AC002430F31A272B98BF4BF0010B0134042C7E
:1010BC00D6D14FF0000A4FF07E574FF0000806AB28
:1010CC000193584B02930493019B0393BBF1000FC4
:1010DC0040F08B80514B53F82A90039B484643F8C1
:1010EC00049B0393049B53F8045B2946049301F07F
:1010FC0001F84146044601F0A5FA08B104F1004498
:10110C004146484601F09EFA10B109F10043994658
:10111C004146284601F096FA08B105F100452946EA
:10112C00484601F0ADFA002861D0404D059801F019
:10113C0093F8294601F0E8F83D4901F099F9214668
:10114C00054601F07FFA80B14146204601F098FA3D
:10115C0058B12146284601F08BF93946044601F076
:10116C0071FA002845D0204607460AF1010ABAF167
:10117C00040FABD100244FF07E590025DFF8A0B04E
:10118C00029B494653F8048B38460293019B53F853
:10119C0004AB019301F06AFA50B94146504600F095
:1011AC00A9FF394601F0B0F8414600F0A5FF824690
:1011BC00029B2946504643F804AC01F039FA294603
:1011CC00C8B1404601F034FA10B9174B43F824600B
:1011DC000134042CD4D10BB0BDE8F04FFFF746BD61
:1011EC0001234DE74FF0010B60E7C14675E7114D48
:1011FC009CE73846B8E7504601F042FA50B9002156
:10120C00504601F01FFA003818BF012040420BF87D
:10121C000400DDE70120FAE778000020A0000020A0
:10122C008C000020900000207C000020000048432F
:10123C000050C34700007A442DE9F04F824B8FB029
:10124C00044618780D46164601F006F87F4901F061
:10125C000FF909AB019308AB324629460290009373
:10126C00204607ABFFF79EFD794B089C187800F0E1
:10127C00F3FF214601F048F8744901F0F9F8754B79
:10128C000646187800F0E8FF214601F03DF86F495A
:10129C0001F0EEF8079D099C07460146284600F030
:1012AC0029FF214600F028FF39460A90284600F015
:1012BC0023FF214600F01EFF31460B90284600F01C
:1012CC001BFF214600F018FF31460C90284600F019
:1012DC0011FF214600F00EFF0DF1280A56464FF083
:1012EC0000084FF07E5500270D9056F8044B3946F8
:1012FC00204601F0A7F908B104F100442946204624
:10130C0001F0BEF930B3039408F101085FFA88F8D4
:10131C00B8F1040F039DE8D14F4B4FF00009059332
:10132C004E4B002798464E4E049303995AF8040BE3
:10133C0001F09EF8029900F0E7FF3946054601F0EE
:10134C009FF948B1307800F08BFF044696F802B054
:10135C0028460FE00395D7E7707800F081FF3946F7
:10136C000446284696F803B001F06CF90028EFD03B
:10137C0005F10040214600F0C7FF344901F078F830
:10138C003946044601F07CF968B1584600F068FF14
:10139C002E4901F06DF82146834601F071F90028C1
:1013AC004AD0584604462046029901F069F900B12A
:1013BC00029C3946284601F063F900283ED1394693
:1013CC00284601F03FF9003818BF01204042059B28
:1013DC00043653F8045B059300F042FF214600F0FD
:1013EC0093FF294600F090FF049B43F8040B0493F1
:1013FC0009F101035FFA83F9B9F1040F95D10021CA
:10140C00D8F8000001F014F9D0B10021D8F804008C
:10141C0001F00EF9A0B10021D8F8080001F008F98C
:10142C0070B10021D8F80C0001F002F940B10FB0F6
:10143C00BDE8F04FFFF710BD2046B3E70120C6E72B
:10144C000FB0BDE8F08F00BF130000200000C842B1
:10145C000200002001000020E0260008A00000206F
:10146C000300002007B50121082000F0CDFA01A8E7
:10147C0000F0B9FA4FF430410B4800F0C1FA0B4BB5
:10148C0001A90948019300F063FA4FF48043ADF8C9
:10149C0004304823044801A98DF8073000F058FAAD
:1014AC0003B05DF804FB00BF000C014000B003105A
:1014BC00F8B50024064625460123A34033424FF4D9
:1014CC0000411248DFB21DD000F09AFA4FF40051DF
:1014DC000E4800F097FA1020FFF7A0FA4FF4804165
:1014EC000A4800F087FA00B13D434FF40051074819
:1014FC0000F086FA01341020FFF790FA082CDBD1AB
:10150C002846F8BD00F07EFAE0E700BF000C014071
:10151C002DE9FF410E46044618B9002004B0BDE881
:10152C00F081002303704370837080234FF42041BB
:10153C00C370037143718371244800F061FA4FF456
:10154C008051224800F05EFA1020FFF767FA092557
:10155C00DFF87C8001AF18F8010BFFF7A9FF013D04
:10156C0007F8010B1020FFF759FA15F0FF05F2D11F
:10157C004FF41041154800F043FA9DF80530732BD9
:10158C0003D0002EC9D0412BC7D19DF806205A2A72
:10159C00C3D19DF80720732B6FEA020262709DF88D
:1015AC00082023706FEA0202A27001D00120B5E777
:1015BC009DF80930E3709DF80A3023719DF80B30CB
:1015CC0063719DF80C30A371F0E700BF000C014073
:1015DC00002700080121FFF79BBF000030B589B040
:1015EC00044600F041FA01A800F062FC002540F628
:1015FC000F632046CDE9015300F079FC01A9204688
:10160C0000F016FB04A800F05CFC0C4B204604A96F
:10161C000493ADF81850ADF8165000F053FB20466B
:10162C0004A900F093FB204604A900F0CFFB204650
:10163C0004A900F009FC09B030BD00BF6000010036
:10164C00F8B505460F4610460021164600F0FAFF85
:10165C00F0B106F100444FF07E51204601F006F83F
:10166C00F0B92046224900F04FFE01F013F884B285
:10167C00002130460FB301F003F8A0B12846002139
:10168C0000F03EFC21462846BDE8F84000F036BC90
:10169C000021304600F0F4FF0446D8B13446DAE7B6
:1016AC004FF46164E4E72846002100F027FC214652
:1016BC002846BDE8F84000F023BC00F0E1FF60B123
:1016CC003946284600F020FC21462846BDE8F84063
:1016DC0000F018BC002FE6D13C462846002100F053
:1016EC0011FC21462846BDE8F84000F00DBC00BFB7
:1016FC000000614513B503240121032000F090F98B
:10170C0001210C2000F080F9CF211C4800F07AF95F
:10171C0003211B4800F076F901A800F064F9194B7D
:10172C0001A91648019300F013F901A91448ADF86A
:10173C00044000F00DF94FF08040FFF74FFF1248C6
:10174C00FFF74CFF18238DF80730CF2301A90B4866
:10175C00ADF8043000F0FCF801A90948ADF80440DC
:10176C0000F0F6F801214FF0804000F0B4FB0121AD
:10177C00054800F0B0FB02B010BD00BF00080140EE
:10178C00000C0140CF000310000400400246012170
:10179C004FF08040FFF754BF024600214FF08040CD
:1017AC00FFF74EBF024601210148FFF749BF00BFBA
:1017BC0000040040024600210148FFF741BF00BF72
:1017CC000004004010B500242046FFF7DFFF204640
:1017DC00FFF7E2FF2046FFF7E5FF2046BDE810408B
:1017EC00FFF7E8BF374B82B01A6842F001021A606B
:1017FC005968354A0A405A601A6822F0847222F4F9
:10180C0080321A601A6822F480221A605A6822F414
:10181C00FE025A604FF41F029A600022009201925D
:10182C001A6842F480321A601A6802F4003201928B
:10183C00009A01320092019A1AB9009AB2F5A06F7F
:10184C00F2D11A6812F4003218BF01220192019AE7
:10185C00012A30D11D4A116841F010011160116844
:10186C0021F003011160116841F0020111605A6806
:10187C005A605A685A605A6842F480625A605A68D0
:10188C0022F47C125A605A6842F4E8125A601A68C0
:10189C0042F080721A601A689201FCD55A6822F0E4
:1018AC0003025A605A6842F002025A605A6802F007
:1018BC000C02082AFAD14FF00062054B9A6002B074
:1018CC00704700BF001002400000FFF800200240EB
:1018DC0000ED00E00F4A536803F00C03082B17D1FE
:1018EC0053685168C3F38343C80303F102030AD45A
:1018FC0009494B4352680949C2F303128A5CD3402D
:10190C00074A1360704751688903F1D40549F0E721
:10191C00044BEFE70010024000093D0009270008C6
:10192C001400002000127A007047FEE7FEE7FEE785
:10193C00FEE770477047704770474FF0E0231A6915
:10194C0004280CBF42F0040222F004021A61704712
:10195C00F0B5CB780E88DA0648BF8A7803F00F050D
:10196C0048BF15430A78C2B1002101274FF00F0C74
:10197C00026807FA01F434EA060E0AD1282B2AD1A0
:10198C0044618C000CFA04FE22EA0E0205FA04F4FF
:10199C00224301310829ECD10260FF2E1AD9002113
:1019AC0001274FF00F0C426801F1080407FA04F408
:1019BC0034EA060E0AD1282B11D144618C000CFAA2
:1019CC0004FE22EA0E0205FA04F42243013108292E
:1019DC00EAD14260F0BD482BD3D10461D1E7482B4A
:1019EC0008BF0461EAE74FF6FF73038040F202433D
:1019FC004380704780680840003818BF012070474A
:101A0C000161704741617047044B9A6911B10243FF
:101A1C009A61704722EA0002FAE700BF0010024008
:101A2C00044BDA6911B10243DA61704722EA000211
:101A3C00FAE700BF00100240044BDA6811B1024310
:101A4C00DA60704722EA0002FAE700BF0010024099
:101A5C00044B1A6911B102431A61704722EA000261
:101A6C00FAE700BF0010024008B5614B98420BD159
:101A7C0001214FF40060FFF7DFFF00214FF40060FD
:101A8C00BDE80840FFF7D8BFB0F1804F09D1012164
:101A9C000846FFF7DDFF00210120BDE80840FFF7F5
:101AAC00D7BF544B984206D101210220FFF7D0FF3B
:101ABC0000210220F1E7504B984206D1012104206D
:101ACC00FFF7C6FF00210420E7E74C4B984206D1F4
:101ADC0001210820FFF7BCFF00210820DDE7484B5F
:101AEC00984206D101211020FFF7B2FF00211020EF
:101AFC00D3E7444B984206D101212020FFF7A8FFE1
:101B0C0000212020C9E7404B984208D101214FF415
:101B1C000050FFF791FF00214FF40050B0E73B4B12
:101B2C00984208D101214FF40020FFF785FF0021D6
:101B3C004FF40020A4E7364B984208D101214FF412
:101B4C008010FFF779FF00214FF4801098E7314B9C
:101B5C00984208D101214FF40010FFF76DFF0021CE
:101B6C004FF400108CE72C4B984206D101214020F9
:101B7C00FFF76EFF002140208FE7284B984206D1DB
:101B8C0001218020FFF764FF0021802085E7244B92
:101B9C00984208D101214FF48070FFF759FF0021C2
:101BAC004FF4807079E71F4B984208D101214FF414
:101BBC008030FFF741FF00214FF4803060E71A4B73
:101BCC00984208D101214FF40030FFF735FF002176
:101BDC004FF4003054E7154B984208D101214FF4D3
:101BEC008020FFF729FF00214FF4802048E708BD33
:101BFC00002C01400004004000080040000C004094
:101C0C00001000400014004000340140004C014022
:101C1C00005001400054014000180040001C0040DE
:101C2C0000200040004001400044014000480140B9
:101C3C00224A038890429BB212D002F50062904275
:101C4C000ED0B0F1804F0BD0A2F59832904207D055
:101C5C0002F58062904203D002F58062904209D175
:101C6C004A8823F070031343CA8823F440739BB251
:101C7C00134306E0124A904203D002F58062904270
:101C8C00F2D103808B8883850B8803850B4B98429C
:101C9C000FD003F5006398420BD003F540639842D4
:101CAC0007D003F58063984203D003F58063984214
:101CBC0001D10B7A0386012383827047002C0140EB
:101CCC0000100040038C70B523F001031B041B0CA7
:101CDC000384038C8488028B0D8822F07302120417
:101CEC00120C4E882A4323F002030D891B04354342
:101CFC001B0C2B43144DA4B2A8429BB20FD005F57C
:101D0C000065A8420BD005F54065A84207D005F543
:101D1C008065A84203D005F58065A8420ED14D8997
:101D2C0023F008032B438D8823F00403CE892B4327
:101D3C008D8924F4407435432C43A4B284800283EF
:101D4C00CA888286038470BD002C0140038C70B558
:101D5C0023F010031B041B0C0384038C8488028B5C
:101D6C000D8822F4E6421204120C42EA05224E8837
:101D7C000D8923F020031B0435431B0C43EA051388
:101D8C00114DA4B2A84292B29BB203D005F50065E6
:101D9C00A84213D14D8923F0800343EA05134FF673
:101DAC00BF751D408B88CE8945EA0315ABB28D8972
:101DBC0024F44064354344EA8504A4B2848002834D
:101DCC00CA880287038470BD002C0140038C70B557
:101DDC0023F480731B041B0C0384038C8288848B78
:101DEC000D8824F073042404240C4E882C4323F413
:101DFC0000730D891B0435431B0C43EA0523114D5D
:101E0C0092B2A8429BB203D005F50065A84213D14B
:101E1C004D8923F4006343EA05234FF6FF351D403B
:101E2C008B88CE8945EA0325ABB28D8922F44052CA
:101E3C00354342EA051292B28280CA888483828733
:101E4C00038470BD002C0140038C70B523F48053C7
:101E5C001B041B0C0384038C8488828B0D8822F456
:101E6C00E6421204120C42EA05224E880D8923F434
:101E7C0000531B0435431B0C43EA05330B4DA4B232
:101E8C00A84292B29BB203D005F50065A84205D1D9
:101E9C008D8924F4804444EA8514A4B2848082831E
:101EAC00CA88A0F84020038470BD00BF002C0140FC
:101EBC004FF6FF73838000230380C380438003723B
:101ECC0070470023038043808380C3800381438158
:101EDC008381C3817047038821B19BB243F0010316
:101EEC000380704723F001031B041B0CF8E70389E4
:101EFC0023F007031B041B0C03817047818670477A
:101F0C000187704781877047A0F840107047000028
:101F1C00034B044A5A6002F188325A60704700BF82
:101F2C000020024023016745024A136943F08003F5
:101F3C001361704700200240014BD860704700BF0E
:101F4C0000200240084BDA68D10709D4DA6852073E
:101F5C0008D4DB6813F0100F0CBF0420032070476B
:101F6C0001207047022070470020024010B5044643
:101F7C00FFF7E8FF012806D10CB9052010BDFFF7CB
:101F8C00E1FF013CF6E7002C08BF0520F6E7000056
:101F9C0038B505464FF43020FFF7E8FF042813D17D
:101FAC000A4C4FF43020236943F00203236165612E
:101FBC00236943F040032361FFF7D8FF236923F023
:101FCC000203DB04DB0C236138BD00BF00200240A0
:101FDC0070B505464FF400500E46FFF7C7FF0428B6
:101FEC000FD1084C4FF40050236943F001032361D7
:101FFC002E80FFF7BBFF236923F00103DB04DB0C0E
:10200C00236170BD00200240FFF7ECFB0A480B492E
:10201C000B4A914204D250F8043B41F8043BF8E7D8
:10202C000849094A0023914202D241F8043BFAE7DD
:10203C00FEF70CFD00F00AB81C2700080000002079
:10204C001800002018000020B0000020FEE700005F
:10205C00830730B546D08446841805E0634603F800
:10206C00011B9D0703D09C46A445F7D130BD013A16
:10207C000244A2EB0C02032A29D9CCB204EB0424AF
:10208C000F2A04EB04442FD9A2F1100C2CF00F0CE6
:10209C0003F11005AC44C3E90044C3E90244103316
:1020AC006345F8D112F00C0F02F00F0E18D01A463F
:1020BC002EF0030C9C44AEF1040542F8044B62452F
:1020CC00FBD125F0030404330EF003022344002A51
:1020DC00CCD0C9B21A4403F8011B9342FBD130BDDA
:1020EC007246F4E70346C6E79646E0E780F0004008
:1020FC0002E000BF81F0004142001FBF5FEA4103D4
:10210C0092EA030F7FEA226C7FEA236C6AD04FEAD3
:10211C001262D2EB1363C1BFD21841404840414018
:10212C00B8BF5B42192B88BF704710F0004F40F4CA
:10213C00000020F07F4018BF404211F0004F41F4E6
:10214C00000121F07F4118BF494292EA030F3FD0B2
:10215C00A2F1010241FA03FC10EB0C00C3F12003C5
:10216C0001FA03F100F0004302D5494260EB400054
:10217C00B0F5000F13D3B0F1807F06D340084FEABF
:10218C00310102F10102FE2A51D2B1F1004F40EBB4
:10219C00C25008BF20F0010040EA0300704749001C
:1021AC0040EB0000013A28BFB0F5000FEDD2B0FAB9
:1021BC0080FCACF1080CB2EB0C0200FA0CF0AABFDC
:1021CC0000EBC25052421843BCBFD040184370477A
:1021DC0092F0000F81F4000106BF80F40000013280
:1021EC00013BB5E74FEA41037FEA226C18BF7FEA57
:1021FC00236C21D092EA030F04D092F0000F08BF99
:10220C000846704790EA010F1CBF0020704712F07F
:10221C007F4F04D1400028BF40F00040704712F1BE
:10222C0000723CBF00F50000704700F0004343F023
:10223C00FE4040F4000070477FEA226216BF084659
:10224C007FEA23630146420206BF5FEA412390EA1C
:10225C00010F40F4800070474FF0000304E000BF12
:10226C0010F0004348BF40425FEA000C08BF7047C3
:10227C0043F0964301464FF000001CE050EA010287
:10228C0008BF70474FF000030AE000BF50EA01029C
:10229C0008BF704711F0004302D5404261EB410189
:1022AC005FEA010C02BF84460146002043F0B643AE
:1022BC0008BFA3F18053A3F50003BCFA8CF2083AD3
:1022CC00A3EBC25310DB01FA02FC634400FA02FCDC
:1022DC00C2F12002BCF1004F20FA02F243EB0200E3
:1022EC0008BF20F00100704702F1200201FA02FC45
:1022FC00C2F1200250EA4C0021FA02F243EB020038
:10230C0008BF20EADC7070474FF0FF0C1CEAD0527B
:10231C001EBF1CEAD15392EA0C0F93EA0C0F6FD03C
:10232C001A4480EA010C400218BF5FEA41211ED01A
:10233C004FF0006343EA501043EA5111A0FB013106
:10234C000CF00040B1F5000F3EBF490041EAD371DB
:10235C005B0040EA010062F17F02FD2A1DD8B3F157
:10236C00004F40EBC25008BF20F00100704790F0C6
:10237C00000F0CF0004C08BF49024CEA502040EA18
:10238C0051207F3AC2BFD2F1FF0340EAC2507047DE
:10239C0040F400004FF00003013A5DDC12F1190F1C
:1023AC00DCBF00F000407047C2F10002410021FA8E
:1023BC0002F1C2F1200200FA02FC5FEA310040F1A6
:1023CC00000053EA4C0308BF20EADC70704792F01F
:1023DC00000F00F0004C02BF400010F4000F013A57
:1023EC00F9D040EA0C0093F0000F01F0004C02BF52
:1023FC00490011F4000F013BF9D041EA0C018FE7C1
:10240C000CEAD15392EA0C0F18BF93EA0C0F0AD0C6
:10241C0030F0004C18BF31F0004CD8D180EA0100EC
:10242C0000F00040704790F0000F17BF90F0004F85
:10243C00084691F0000F91F0004F14D092EA0C0F67
:10244C0001D142020FD193EA0C0F03D14B0218BFFA
:10245C00084608D180EA010000F0004040F0FE4040
:10246C0040F40000704740F0FE4040F440007047DC
:10247C004FF0FF0C1CEAD0521EBF1CEAD15392EA5B
:10248C000C0F93EA0C0F69D0A2EB030280EA010C4B
:10249C0049024FEA402037D04FF0805343EA1111E4
:1024AC0043EA10130CF000408B4238BF5B0042F142
:1024BC007D024FF4000C8B4224BF5B1A40EA0C00E7
:1024CC00B3EB510F24BFA3EB510340EA5C00B3EB19
:1024DC00910F24BFA3EB910340EA9C00B3EBD10F07
:1024EC0024BFA3EBD10340EADC001B0118BF5FEA59
:1024FC001C1CE0D1FD2A3FF650AF8B4240EBC25082
:10250C0008BF20F0010070470CF0004C4CEA502042
:10251C007F32C2BFD2F1FF0340EAC250704740F491
:10252C0000004FF00003013A37E792F0000F00F083
:10253C00004C02BF400010F4000F013AF9D040EA01
:10254C000C0093F0000F01F0004C02BF490011F495
:10255C00000F013BF9D041EA0C0195E70CEAD1538D
:10256C0092EA0C0F08D142027FF47DAF93EA0C0F74
:10257C007FF470AF084676E793EA0C0F04D14B0258
:10258C003FF44CAF08466EE730F0004C18BF31F00A
:10259C00004CCAD130F000427FF45CAF31F0004304
:1025AC007FF43CAF5FE700BF4FF0FF3C06E000BF9D
:1025BC004FF0010C02E000BF4FF0010C4DF804CDC0
:1025CC004FEA40024FEA41037FEA226C18BF7FEAD0
:1025DC00236C11D001B052EA530C18BF90EA010FD2
:1025EC0058BFB2EB030088BFC81738BF6FEAE17061
:1025FC0018BF40F0010070477FEA226C02D15FEAFD
:10260C00402C05D17FEA236CE4D15FEA412CE1D068
:10261C005DF8040B704700BF844608466146FFE72F
:10262C000FB5FFF7C9FF002848BF10F1000F0FBD11
:10263C004DF808EDFFF7F4FF0CBF012000205DF80A
:10264C0008FB00BF4DF808EDFFF7EAFF34BF01208F
:10265C0000205DF808FB00BF4DF808EDFFF7E0FF28
:10266C0094BF012000205DF808FB00BF4DF808ED79
:10267C00FFF7D2FF94BF012000205DF808FB00BFDC
:10268C004DF808EDFFF7C8FF34BF012000205DF8BE
:10269C0008FB00BF42000ED2B2F1FE4F0BD34FF03D
:1026AC009E03B3EB126209D44FEA002343F00043BC
:1026BC0023FA02F070474FF00000704712F1610FDF
:1026CC0001D1420202D14FF0FF3070474FF00000B1
:1026DC00704700BF000080BF000080BF0000803F3B
:1026EC000000803F646400006464000064640000C7
:1026FC0064640000014200000000000000000000C3
:10270C000000000000010203040607080900000095
:10271C00FF5F64646400006464000064640000642F
:08272C006400006400A24A04ED
:0400000508002015BA
:00000001FF
