:020000040800F2
:1000000000500020B5240008D51D0008D71D0008A9
:10001000D91D0008DB1D0008DD1D000800000000E0
:10002000000000000000000000000000DF1D0008CC
:10003000E11D000800000000E31D0008E51D0008A8
:10004000F9240008F9240008F9240008F92400081C
:10005000F9240008F9240008F9240008F92400080C
:10006000F9240008F9240008F9240008F9240008FC
:10007000F9240008F9240008F9240008F9240008EC
:10008000F9240008F9240008F9240008F9240008DC
:10009000F9240008F9240008F9240008F9240008CC
:1000A000F9240008F9240008F9240008F9240008BC
:1000B000F9240008F9240008F9240008F9240008AC
:1000C000F9240008F9240008F9240008F92400089C
:1000D000F9240008F9240008F9240008F92400088C
:0C00E000F9240008F9240008F9240008A5
:1000EC0038B505460C4600F00BFEA84215D021464B
:1000FC00284600F0F1FD0C4B1B789BB10B4B1A788A
:10010C00AA420FD15B78191B18BF01210022084BA2
:10011C00C9B21970074B1A7003E000F0F7FDA0424A
:10012C00E5D138BD0121F1E7410000203C00002061
:10013C00400000203900002010B50446807900F002
:10014C001BFE08B9002010BD607900F015FE0028D8
:10015C00F8D0E07800F010FE003818BF0120F2E76C
:10016C000023024A1370024A137070472C000020BF
:10017C002D00002008B50023094A1380094A13708A
:10018C00094A1370094A1370094A13700022094B6B
:10019C001A6000F019FC084B1860084B186008BD79
:1001AC003A00002039000020180000203F000020F9
:1001BC00190000201C00002020000020240000203A
:1001CC00642310B50D4C23705F232046637000F040
:1001DC000BFB0B4B61781870207800F07DFD002331
:1001EC00084A1370084A1370084A1370084A1360BF
:1001FC00FFF7C0FFBDE81040FFF7B2BF3C00002086
:10020C0041000020380000203E000020400000206B
:10021C00300000202DE9F04F8BB0054600F0D4FBE8
:10022C00044615B12B78732B05D0FFF7A3FF0020E4
:10023C000BB0BDE8F08FA84BB5F80170B3F8008097
:10024C001F8000F05DFD064600F060FD17F0010315
:10025C00014605937CD027EA080818F4804F49D052
:10026C0064210846FFF73CFF18F4005F70D0284665
:10027C00FFF762FF0390002867D00123974A1370A1
:10028C00687902F039FA00F07DFD0021049002F04B
:10029C0029FC20B1049B03F10049CDF81090E878BB
:1002AC0002F02AFA0646687902F026FA8046A87906
:1002BC0002F022FA09AB019308AB32464146009397
:1002CC0007AB00F093FDDDF820800021404602F0E2
:1002DC0009FC4FF0000B099E00283CD059463046D3
:1002EC0008F1004802F0FEFB08B106F100464FF0A1
:1002FC00FF3941E007F41043B3F5104F0FD018F459
:10030C00004F04D0372E38BF3726053EF6B218F40E
:10031C00805F04D05F2E28BF5F260536F6B207F04B
:10032C005003502B0FD018F0400F04D0372938BF92
:10033C0037210539C9B218F0100F04D05F2928BF36
:10034C005F210531C9B230468CE70422644B1A7028
:10035C000023039394E75946304602F0C3FB08B1DF
:10036C0006F100460021404602F0DAFB002814BFDB
:10037C004FF001094FF0FF39012FDFF868A140F071
:10038C008580A87900F0F8FCA8B15749049802F0D0
:10039C00A9FB80B90021404602F09AFB58B9534999
:1003AC00404602F001FA314602F09CFB18B900F00D
:1003BC00B3FC002871D100234D4A13704D4AC2F88A
:1003CC0000B04D4A13704D4B1C604D4B1C60002F00
:1003DC007FD12846FFF7B0FE00287AD0384600F0CF
:1003EC009BFC002875D19AF8003023B9454B1C6052
:1003FC0001238AF80030394B1B78002B3FF417AFE0
:10040C00039B5BB99AF80030002B3FF410AF3D4BC7
:10041C001B68E31AB3F5FA6FFFF409AF3A4D3B4E84
:10042C002B7833B147F22F523368E31A93427FF69D
:10043C00FEAE00F035FD00F063FC8DF8240000F0FA
:10044C0065FC8DF8250009A800F0E0F90122244B89
:10045C0034602A70002800F0C8802D49BDF8244073
:10046C000C802C490A7000221C490A701870042355
:10047C000024294A1370294B1C7000F0A5FA284B54
:10048C00963818608AF800400120D1E6059B002BB5
:10049C0091D1244B059A1A708DE71549184A91F998
:1004AC0000304B45154B06D081F8009011491C606B
:1004BC001460C1F800B01E681C601368E31AB3F531
:1004CC00167F03D3174F3B78042B2DD900230A4AF0
:1004DC00137000238DE700BF3A000020400000207D
:1004EC003E000020390000209A99993E3333B33EE8
:1004FC00190000201C0000203F00002020000020DC
:10050C00240000203400002038000020300000209F
:10051C003C000020410000202D0000202C00002079
:10052C0028000020180000200123324A099913707A
:10053C00084602F031F8089902F0EAF9014602F097
:10054C002BF80546A01B142828BF142002F0D4F861
:10055C00DFF8A4800146284602F026F9274902F06C
:10056C00D7F9D8F8001002F017F8C8F8000000F01E
:10057C00C7FB054600F0CAFBD8F8009006464FF0C2
:10058C007E51484602F0C2FAD0B1632D10D8013525
:10059C00EDB24FF07E51484601F0FCFF3B78C8F8B5
:1005AC00000001333B7031462846FFF799FD90E778
:1005BC00322E02D9013EF6B2EBE7C8F800B088E75C
:1005CC0048460F4902F098FA0028ECD0322D07D992
:1005DC00013DEDB24FF07E51484601F0DDFFDDE705
:1005EC00632EEAD80136F6B2F4E703221A700A2316
:1005FC003EE700BF3F0000201C00002000007A44B2
:10060C00000080BF38B50E4D04462878A0B1A4B1C7
:10061C0000F0DAF90B490C4A0B68C31A952B08D970
:10062C0013780860B3FA83F35B0913702B78013BE2
:10063C002B7001201378237038BD2046FCE700BFD7
:10064C002D000020280000202C000020008880B203
:10065C00704708B501F0ACFEBDE80840342001F04D
:10066C00BBBE01F0B1BE0000064A08B520F48063A1
:10067C00934205D101F0DCFE031F5842584108BDDE
:10068C000020FCE700F8000800F17843A3F578435C
:10069C00B3F5006F70B505460E460FD210F001048D
:1006AC000CD101F0E5FE042806D1288880B2331A5B
:1006BC0058425841C0B270BD2046FBE70020FAE713
:1006CC0058B10378323B322B06D840783238322876
:1006DC008CBF0020012070470020704770B50022AD
:1006EC00044641F221064FF6FF70C2F3460334F87C
:1006FC00133002F00101C9000B41082180EA0320EC
:10070C0080B210F4004F0CBF002333464500ADB24D
:10071C0085EA03004B1E13F0FF01F2D101320C2AC3
:10072C00E3D170BD38B50C4602890A70110A6170AC
:10073C004CF2172105888D4217D14188022914D11A
:10074C004AF25A51C5898D420FD141894A404FF620
:10075C00FF718A4209D18589FFF7C0FF854204D118
:10076C002046FFF7ADFFC0B238BD0020FBE770B5E7
:10077C000C4601F11006451A2819FFF767FF24F8FB
:10078C00020BB442F8D170BD2DE9F04300251022C4
:10079C00002187B00446A84601F0AAFE2F46104E51
:1007AC00DFF84090304602A9FFF7E1FF01A902A84B
:1007BC00FFF7B8FF50B1039B17B15A1B002A05DD98
:1007CC001D46B0460746BDF80420A28110364E45A2
:1007DC00E8D12046C4E90185277007B0BDE8F08355
:1007EC0000F80008000001081FB5044610B90020ED
:1007FC0004B010BD6846FFF7C7FF9DF80030002B12
:10080C00F5D0BDF80C3001202380F1E72DE9F04F35
:10081C008FB00746FFF754FF002872D002A8FFF7ED
:10082C00B3FF9DF80850002D5BD09DF814203B7849
:10083C009A4204D19DF815207B789A4263D0039E8E
:10084C006FF3090634464FF6FF7B06F5806AA04627
:10085C0004F110094046FFF7F9FE584543D108F161
:10086C000208C845F6D1FFF7F4FE5CB9002D3FD065
:10087C00264B274C9E4218BF1C462046FFF7F4FE21
:10088C0000283CD00DB1049D0135224B06A8CDE9C2
:10089C0006353B882646ADF82030DB43ADF82230D8
:1008AC00FFF71CFF4AF25A534FF6FF78ADF82400BD
:1008BC00ADF8263006AD04F1100735F8021B4145A2
:1008CC0018D10236B742F8D1FFF7CBFE20460AA961
:1008DC00FFF74DFF01A90AA8FFF724FF0FB0BDE8F1
:1008EC00F08F0A4EAEE7CA454C46B0D10024BAE7A9
:1008FC003446C2E73046FFF7C7FE0028E1D1FFF7C8
:10090C00B0FE0020EAE70220E8E700BF00F800088C
:10091C0000FC000817C202000B4B00221B68584356
:10092C004FF0E023013858619A611A6942F00102D4
:10093C001A611A69D203FCD51A6922F001021A61F4
:10094C0000229A61704700BF5400002038B5154D45
:10095C0001F010FA2B68144A0024B3FBF2F3134A8B
:10096C00042013604FF0E0231C6101F036FA104AAA
:10097C00D2F8FC3043F08073C2F8FC300D4B5C6055
:10098C001A6842F001021A604FF47A722B68B3FBBA
:10099C00F2F3094A1360094B1C60094B1C60094BAC
:1009AC001C6038BD1400002040420F005400002091
:1009BC0000ED00E0001000E050000020440000209A
:1009CC00480000204C0000200F4B104A5B68116857
:1009DC0030B513600E4A1068A0B15B1AB3FBF0F48B
:1009EC000C4900FB14330A6822440B4C0A6025683E
:1009FC002B4498429CBF01321B1A10468EBF2360B9
:100A0C0023600A6030BD00BF001000E04C000020E5
:100A1C0050000020440000204800002008B1FFF7DF
:100A2C007BBF7047014608B501B908BD4FF47A7019
:100A3C000139FFF771FF89B2F6E70000102200219F
:100A4C00014801F055BD00BF5D00002083B5FFF7E4
:100A5C007DFF00F01DFBFFF7B3FB00F021FA012135
:100A6C00102001F021FA4FF400517A4801F018FAE5
:100A7C0001A801F008FA784B764801A9019301F01E
:100A8C00B7F90023754F764E764D3B7033702B7053
:100A9C0000F004FFDFF8D081744CDFF8D4912046CD
:100AAC0000F0B4FF734B227873491A700B68013352
:100ABC000B60002838D0637813F0080A32D0732A00
:100ACC002DD100F043FB642000F024FAFF2388F8BA
:100ADC000030FFF745FB002389F80030FFF7AEFF2D
:100AEC00FFF748FB00F0AEFB002000F015F90028E2
:100AFC007ED101A8FFF786FD00287BD09DF804303D
:100B0C004FF400515348002B6FD001F0CBF9002368
:100B1C0033702B703B700A20FFF784FFBCE700F0AA
:100B2C00BFF9D0E7732A02D000F0BAF9D3E799F8ED
:100B3C0000301BBB00F004FB08B900F0B1F9FFF763
:100B4C007DFFFFF717FB00F0FBFA0028CAD1A07954
:100B5C0000F012F90028C5D0607900F00DF90028DA
:100B6C00C0D0E07800F008F90028BBD06378A278F8
:100B7C001343B7D1012389F80030B3E72046FFF7C0
:100B8C0049FB20B189F800A0FFF758FFAAE794F8B9
:100B9C0002C06178394A072888BFA0F1080392F88F
:100BAC0000E094BF41FA00F34CFA03F303F00103A5
:100BBC00BEF1000F04D01BB95FFA80FE88F800E08C
:100BCC000130102802F8013BE5D1E07801F094FDEA
:100BDC008246607901F090FD8146A07901F08CFD90
:100BEC005246494600F024FD7CE701F059F98EE7A6
:100BFC00FFF7B6FA3C2000F08FF8044640B94FF4EA
:100C0C000051144801F04CF93C7034702C7082E7A0
:100C1C003B784BB901224FF400510E483A703270B8
:100C2C002B7001F03FF976E72B780133DBB2272BE1
:100C3C0001D82B706FE700232B7033784FF40051E1
:100C4C00002B0CBF0123002302483370E9D001F0C4
:100C5C0027F960E700100140002002107700002007
:100C6C007600002075000020000000206E0000209F
:100C7C006D0000205C000020580000205D0000206A
:100C8C0010B5074C206800F09DFF606800F0A0FFD5
:100C9C00A06800F0A3FFE068BDE8104000F0A6BF1C
:100CAC00B80000200021084A084B11605160916087
:100CBC00D1600322186058609860D860044B1860AB
:100CCC00044B1A7000F0AABFB8000020A40000204A
:100CDC00940000209C000020A0F13203322B09D894
:100CEC00A1F13203322B05D8034B1870034B0120B2
:100CFC00197070470020704702000020010000208E
:100D0C00014B1878704700BF02000020014B187887
:100D1C00704700BF010000204FF461632DE9F047DC
:100D2C0000254FF000094FF0640803FB00F6104F4C
:100D3C00DFF840A057F8044B4946204601F0D2FE9C
:100D4C0008B104F100445146204601F02DFD01F09C
:100D5C00F1FE80B208FB00F0B04206D80135EDB2CE
:100D6C00042DE7D10020BDE8F0870120FBE700BF90
:100D7C00B800002000006145783810288CBF002096
:100D8C000120704710B50021044601F0BFFE28B3C6
:100D9C002046134901F0B0FE00B321464FF08640C7
:100DAC0001F0F8FB4FF08241044601F0B9FE40B16E
:100DBC004FF08241204601F0EDFB0A4901F0A8FDFD
:100DCC0010BD4FF04141204601F08CFE30B14FF088
:100DDC008241204601F0E0FB0349EFE70020EFE7FA
:100DEC0000007F430000F0420000EE422DE9F04786
:100DFC000D46DDE908A914469846002B4BD0BAF1F4
:100E0C00000F48D0B9F1000F45D0FFF7BBFF0746E4
:100E1C002846FFF7B7FF06462046FFF7B3FF3946D3
:100E2C000546384601F0C0FC31460446304601F018
:100E3C00BBFC0146204601F0AFFB4FF07E5104464F
:100E4C0001F06EFE48B34FF07E504FF07A5101F036
:100E5C00ABFC4FF07D5101F09FFB01460446384638
:100E6C0001F0A2FC2146C8F80000304601F09CFCC1
:100E7C004FF07C51CAF80000284601F095FC294639
:100E8C0001F092FC4FF07C5101F086FB294601F0F9
:100E9C008BFCC9F80000BDE8F0872046D5E70000C0
:100EAC002DE9F041FFF790FD002405464FF00008B6
:100EBC00114A124F1470124A124E1470124A1460D6
:100ECC00414657F8040B01F003FE90B1631CDCB2F1
:100EDC00042C47F8048C06F10406F1D110220021F1
:100EEC000A4801F005FB0A4B1D60BDE8F04100F01B
:100EFC0085BE3560EAE700BF9C000020B8000020EA
:100F0C0080000020A40000207C000020C8000020ED
:100F1C00A0000020642828BF64202DE9F84F564B10
:100F2C0018701A781AB9BDE8F84FFFF7B9BF1878DE
:100F3C0001F0E2FB514901F0EBFC4FF0000ADFF845
:100F4C004081064647460425D14657F8044B49468E
:100F5C00204601F0C7FD08B104F10044514620467B
:100F6C0001F0DEFD00B95446013D15F0FF05A24627
:100F7C00EBD1DFF810910427CA464FF0000B5AF85A
:100F8C00045B0021284601F0ADFD08B105F10045D8
:100F9C005946284601F0C4FD00B95D46013F17F0E3
:100FAC00FF07AB46EBD13146284601F0B9FD80B1C5
:100FBC002946304601F0ACFC04250746D9F8000060
:100FCC00394601F0F1FB013D15F0FF0549F8040B22
:100FDC00F4D13146204601F0A3FD80B121463046C4
:100FEC0001F096FC04240546D8F80000294601F0CF
:100FFC00DBFB013C14F0FF0448F8040BF4D104248F
:10100C004FF00008204F57F8045B4146284601F08A
:10101C0069FD88B1304605F1004101F063FDB0B9BE
:10102C00013C14F0FF04EED1184B1B78032B20D09D
:10103C00BDE8F84FFFF724BE3146284601F070FD9D
:10104C000028EDD04146284601F06AFD78B9002110
:10105C00284601F047FD003818BF0120404201F03E
:10106C004FFB314601F0A0FB47F8040CD8E70120F8
:10107C00F5E7BDE8F88F00BF130000200000C84260
:10108C00B800002084000020C80000209C00002034
:10109C0038B5FFF799FC0024054600F047FD1A4BC4
:1010AC0010221C70194B21461C70194B19481C60DE
:1010BC00194B1C6001F01CFA10222146174801F054
:1010CC0017FA10222146164801F012FA154B164A4F
:1010DC001C60164BC3E90055C3E90255144B03F1D0
:1010EC00100153F8040B8B4242F8040BF9D1642025
:1010FC005F22104B1D60104B1870104B1A70BDE81E
:10110C003840FFF707BF00BF9C0000208000002084
:10111C0078000020B80000207C000020C8000020CF
:10112C0084000020B400002003000020A400002054
:10113C00902B0008A00000200200002001000020DD
:10114C00014B1878704700BF9C0000202DE9F74F29
:10115C000025FFF739FC2F4B06461D605D609D6036
:10116C00DD602D4B1B7803F0FF07002B49D138466F
:10117C00FFF7D2FD20B903B0BDE8F04FFFF790BEEA
:10118C00A946264BDFF89880DFF898A0019358F811
:10119C00044B2946204604F1004B01F0A3FC00B19E
:1011AC005C464946204601F0BBFC00B94C461E4942
:1011BC00584601F0F9FA1D4901F0AAFB0137019BD1
:1011CC00FFB243F8046B042FA1464AF8040B48F80D
:1011DC00045C0193DBD10023154A1370154A13608C
:1011EC00154B1E60154B1E6000F008FD0F49204684
:1011FC0001F0DAFA124901F089FC28B10123064A00
:10120C00137003B0BDE8F08F304603B0BDE8F04F6B
:10121C00FFF748BDC80000209C000020A40000205F
:10122C00B800002084000020000020410000C842CB
:10123C00800000207C000020A000002098000020EE
:10124C000000F0412DE9F04F8DB0FFF7BDFB534C82
:10125C00534B01901A681860237803F0FF01039137
:10126C00002B5FD1831A142B28BF14230027029361
:10127C004C4B8B4605934C4B0E469A46B946B8469A
:10128C000493059B414653F8044B2046059301F00B
:10129C0047FC00287CD14146204601F023FCB0B12C
:1012AC004FF0FF33414A92578AB19A420FD0002136
:1012BC00DAF8000001F00CFC00286BD03C4B019AD2
:1012CC0053F82630D31A272B98BF4BF0010B5AF842
:1012DC00045B4146284601F005FC08B105F10045C8
:1012EC004946284601F01CFC00B94D4641462046B3
:1012FC00A94601F0F7FB08B104F100443946204639
:10130C0001F00EFC00B93C460136042E2746B8D13C
:10131C00284EBBF1000F55D0002333704FF07E5395
:10132C000793B0E0244B1D68019B5D1B2378012BB8
:10133C0011D1132D0FD9312D27D8204A1A4B1168F2
:10134C001960516859609168D2689960DA6002231B
:10135C002370FFF795FC2378022B04D1312D02D991
:10136C000198FFF79FFC2378032B40F04181144B2D
:10137C00019A1B68D31A632B40F23A810023237025
:10138C000DB0BDE8F04F00F039BCFFF78BFCE2E785
:10139C00012387E74FF0010B99E700BF9C00002069
:1013AC00A0000020C8000020B8000020B4000020DD
:1013BC00A400002080000020980000208400002061
:1013CC009400002033780BBB0021284601F080FBF1
:1013DC000028A3D00021204601F0A2FB00289DD0BC
:1013EC0001233370844B8549C3F800B0204601F0CB
:1013FC00DBF94FF07C5101F0CFF801F09BFB4F284B
:10140C0098BF50227E4B8CBF18601A607A4B029AA0
:10141C00186810447A4A18601468A04203D31C6000
:10142C0000232046337001F067F90546204601F091
:10143C0063F90146284601F06BFA0446714901F044
:10144C00B3F9714901F0A6F8214601F0ADF96F49E5
:10145C0001F0A2F821460546204601F0A5F92146E7
:10146C0001F0A2F90146284601F09EF94FF07E5199
:10147C00044601F055FB002800F09F804FF07E5091
:10148C000123079003934FF000084FF07E5600277E
:10149C005F4B0DF1200ACDE9053ABBF1000F40F08E
:1014AC008E805C4B079853F8281001F07DF981462B
:1014BC00069B484643F8049B0693059B53F8045B34
:1014CC002946059301F066F83946044601F00AFBFB
:1014DC0008B104F100443946484601F003FB10B151
:1014EC0009F1004399463946284601F0FBFA08B148
:1014FC0005F100454946284601F0F4FA002860D071
:10150C00039B002B5FD0444D029801F0F5F829465F
:10151C0001F04AF9414901F0FBF92146054601F079
:10152C00E1FA80B13946204601F0FAFA58B1214669
:10153C00284601F0EDF93146044601F0D3FA0028B3
:10154C0043D02046064608F10108B8F1040FA4D197
:10155C0000244FF07E580025DFF8C490049B4146D0
:10156C0053F8047B30465AF804BB049301F0CEFACE
:10157C0050B93946584601F00DF8314601F014F9CE
:10158C00394601F009F88346049B2946584643F82E
:10159C0004BC01F09DFA2946C8B1384601F098FA0E
:1015AC0018B9204B019A43F824200134042CD5D1CE
:1015BC000DB0BDE8F04FFFF763BB204660E7B946BE
:1015CC0076E7194DA0E7194D9EE73046BAE7584625
:1015DC0001F0A6FA50B90021584601F083FA003800
:1015EC0018BF0120404209F80400DEE70120FAE7A9
:1015FC000DB0BDE8F08F00BF7C0000200000FA4366
:10160C00780000200000C040000070410000204124
:10161C00B8000020C80000200080BB430050C34726
:10162C00B4000020A400002000007A4400004843CD
:10163C002DE9F04F914B0C461E788FB000210746D8
:10164C001546F6B201F062FAC0B138468C4901F089
:10165C0053FA98B10021204601F058FA70B1204697
:10166C00874901F049FA48B10021284601F04EFAA9
:10167C0020B12846824901F03FFA20B90FB0BDE8ED
:10168C00F04FFFF70DBC09AB019308AB2A4621467E
:10169C003846009307ABFFF7A9FB7A4B089C1878E8
:1016AC0001F02AF8214601F07FF8774901F030F972
:1016BC00764B0746187801F01FF8214601F074F8B4
:1016CC00714901F025F9079D099C80460146284681
:1016DC0000F060FF214600F05FFF41460A9028466B
:1016EC0000F05AFF214600F055FF39460B90284672
:1016FC0000F052FF214600F04FFF39460C9028466F
:10170C0000F048FF214600F045FF0DF1280AD046B5
:10171C0004254FF07E574FF000090D9058F8044BFC
:10172C004946204601F0DEF908B104F1004439467F
:10173C00204601F0F5F950B30394013D15F0FF0577
:10174C00039FEBD1304600F0D7FF4F4901F0E0F892
:10175C004F4BDFF8409105930423C84600274E4EAB
:10176C000290049303995AF8040B01F0D1F80299F2
:10177C0001F01AF83946054601F0D2F948B1307833
:10178C0000F0BEFF044696F802B029460FE003971E
:10179C00D3E7707800F0B4FF39460446284696F833
:1017AC0003B001F09FF90028EFD005F1004120466D
:1017BC0000F0FAFF344901F0ABF83946044601F069
:1017CC00AFF968B1584600F09BFF2F4901F0A0F823
:1017DC002146834601F0A4F9002847D05846044618
:1017EC002046029901F09CF900B1029C394628462A
:1017FC0001F096F900283BD13946284601F072F9E0
:10180C00003818BF01204042059B043653F8045B96
:10181C00059300F075FF214600F0C6FF294600F045
:10182C00C3FF049B49F8040B013B13F0FF03049323
:10183C0098D10021D8F8000001F04AF9D0B100216C
:10184C00D8F8040001F044F9A0B10021D8F8080040
:10185C0001F03EF970B10021D8F80C0001F038F914
:10186C0040B10FB0BDE8F04FFFF770BC2046B6E7B3
:10187C000120C9E70FB0BDE8F08F00BF13000020B6
:10188C0000007F43020000200000C842010000203D
:10189C00802B0008C80000200300002007B50121A0
:1018AC00082000F001FB01A800F0EDFA4FF43041E4
:1018BC000B4800F0F5FA0B4B01A90948019300F015
:1018CC0097FA4FF48043ADF804304823044801A93B
:1018DC008DF8073000F08CFA03B05DF804FB00BF04
:1018EC00000C014000B00310F8B500240646254654
:1018FC000123A34033424FF400411248DFB21DD004
:10190C0000F0CEFA4FF400510E4800F0CBFA102044
:10191C00FFF784F84FF480410A4800F0BBFA00B19D
:10192C003D434FF40051074800F0BAFA013410203F
:10193C00FFF774F8082CDBD12846F8BD00F0B2FA9A
:10194C00E0E700BF000C01402DE9FF410E460446C4
:10195C0018B9002004B0BDE8F08100230370437077
:10196C00837080234FF42041C370037143718371E2
:10197C00244800F095FA4FF48051224800F092FA76
:10198C001020FFF74BF80925DFF87C8001AF18F821
:10199C00010BFFF7A9FF013D07F8010B1020FFF722
:1019AC003DF815F0FF05F2D14FF41041154800F049
:1019BC0077FA9DF80530732B03D0002EC9D0412B3C
:1019CC00C7D19DF806205A2AC3D19DF80720732B46
:1019DC006FEA020262709DF8082023706FEA02021F
:1019EC00A27001D00120B5E79DF80930E3709DF895
:1019FC000A3023719DF80B3063719DF80C30A37184
:101A0C00F0E700BF000C0140A02B00080121FFF7FC
:101A1C009BBF000030B589B0044600F075FA01A8F0
:101A2C0000F096FC002540F60F632046CDE90153EB
:101A3C0000F0ADFC01A9204600F04AFB04A800F020
:101A4C0090FC0C4B204604A90493ADF81850ADF84B
:101A5C00165000F087FB204604A900F0C7FB204677
:101A6C0004A900F003FC204604A900F03DFC09B0D9
:101A7C0030BD00BF60000100F8B505460F461046AA
:101A8C000021164601F02EF8F0B106F100444FF09B
:101A9C007E51204601F03AF8F0B92046224900F078
:101AAC0083FE01F047F884B2002130460FB301F0F9
:101ABC0037F8A0B12846002100F072FC21462846D8
:101ACC00BDE8F84000F06ABC0021304601F028F86F
:101ADC000446D8B13446DAE74FF46164E4E72846AB
:101AEC00002100F05BFC21462846BDE8F84000F0E0
:101AFC0057BC01F015F860B13946284600F054FC8B
:101B0C0021462846BDE8F84000F04CBC002FE6D139
:101B1C003C462846002100F045FC21462846BDE8FD
:101B2C00F84000F041BC00BF0000614513B5032430
:101B3C000121032000F0C4F901210C2000F0B4F9BC
:101B4C00CF211C4800F0AEF903211B4800F0AAF984
:101B5C0001A800F098F9194B01A91648019300F05F
:101B6C0047F901A91448ADF8044000F041F94FF0D1
:101B7C008040FFF74FFF1248FFF74CFF18238DF8FA
:101B8C000730CF2301A90B48ADF8043000F030F931
:101B9C0001A90948ADF8044000F02AF901214FF0E1
:101BAC00804000F0E8FB0121054800F0E4FB02B0A6
:101BBC0010BD00BF00080140000C0140CF00031015
:101BCC0000040040024601214FF08040FFF754BF53
:101BDC00024600214FF08040FFF74EBF0246012124
:101BEC000148FFF749BF00BF000400400246002136
:101BFC000148FFF741BF00BF0004004010B50024AE
:101C0C002046FFF7DFFF2046FFF7E2FF2046FFF7F5
:101C1C00E5FF2046BDE81040FFF7E8BF08B5FFF729
:101C2C00EDFF4FF461614FF0804000F0B7FB4FF4D3
:101C3C0061614FF0804000F0B3FB4FF461614FF0F5
:101C4C00804000F0AFFB4FF461614FF0804000F03A
:101C5C00ABFB4FF461610A4800F0A0FB4FF46161EB
:101C6C00074800F09DFB4FF46161054800F09AFBBA
:101C7C00BDE808404FF46161014800F095BB00BF1E
:101C8C0000040040374B82B01A6842F001021A601F
:101C9C005968354A0A405A601A6822F0847222F454
:101CAC0080321A601A6822F480221A605A6822F470
:101CBC00FE025A604FF41F029A60002200920192B9
:101CCC001A6842F480321A601A6802F400320192E7
:101CDC00009A01320092019A1AB9009AB2F5A06FDB
:101CEC00F2D11A6812F4003218BF01220192019A43
:101CFC00012A30D11D4A116841F0100111601168A0
:101D0C0021F003011160116841F0020111605A6861
:101D1C005A605A685A605A6842F480625A605A682B
:101D2C0022F47C125A605A6842F4E8125A601A681B
:101D3C0042F080721A601A689201FCD55A6822F03F
:101D4C0003025A605A6842F002025A605A6802F062
:101D5C000C02082AFAD14FF00062054B9A6002B0CF
:101D6C00704700BF001002400000FFF80020024046
:101D7C0000ED00E00F4A536803F00C03082B17D159
:101D8C0053685168C3F38343C80303F102030AD4B5
:101D9C0009494B4352680949C2F303128A5CD34088
:101DAC00074A1360704751688903F1D40549F0E77D
:101DBC00044BEFE70010024000093D00A92B00087E
:101DCC001400002000127A007047FEE7FEE7FEE7E1
:101DDC00FEE770477047704770474FF0E0231A6971
:101DEC0004280CBF42F0040222F004021A6170476E
:101DFC00F0B5CB780E88DA0648BF8A7803F00F0569
:101E0C0048BF15430A78C2B1002101274FF00F0CCF
:101E1C00026807FA01F434EA060E0AD1282B2AD1FB
:101E2C0044618C000CFA04FE22EA0E0205FA04F45A
:101E3C00224301310829ECD10260FF2E1AD900216E
:101E4C0001274FF00F0C426801F1080407FA04F463
:101E5C0034EA060E0AD1282B11D144618C000CFAFD
:101E6C0004FE22EA0E0205FA04F422430131082989
:101E7C00EAD14260F0BD482BD3D10461D1E7482BA5
:101E8C0008BF0461EAE74FF6FF73038040F2024398
:101E9C004380704780680840003818BF01207047A5
:101EAC000161704741617047044B9A6911B102435B
:101EBC009A61704722EA0002FAE700BF0010024064
:101ECC00044BDA6911B10243DA61704722EA00026D
:101EDC00FAE700BF00100240044BDA6811B102436C
:101EEC00DA60704722EA0002FAE700BF00100240F5
:101EFC00044B1A6911B102431A61704722EA0002BD
:101F0C00FAE700BF0010024008B5614B98420BD1B4
:101F1C0001214FF40060FFF7DFFF00214FF4006058
:101F2C00BDE80840FFF7D8BFB0F1804F09D10121BF
:101F3C000846FFF7DDFF00210120BDE80840FFF750
:101F4C00D7BF544B984206D101210220FFF7D0FF96
:101F5C0000210220F1E7504B984206D101210420C8
:101F6C00FFF7C6FF00210420E7E74C4B984206D14F
:101F7C0001210820FFF7BCFF00210820DDE7484BBA
:101F8C00984206D101211020FFF7B2FF002110204A
:101F9C00D3E7444B984206D101212020FFF7A8FF3C
:101FAC0000212020C9E7404B984208D101214FF471
:101FBC000050FFF791FF00214FF40050B0E73B4B6E
:101FCC00984208D101214FF40020FFF785FF002132
:101FDC004FF40020A4E7364B984208D101214FF46E
:101FEC008010FFF779FF00214FF4801098E7314BF8
:101FFC00984208D101214FF40010FFF76DFF00212A
:10200C004FF400108CE72C4B984206D10121402054
:10201C00FFF76EFF002140208FE7284B984206D136
:10202C0001218020FFF764FF0021802085E7244BED
:10203C00984208D101214FF48070FFF759FF00211D
:10204C004FF4807079E71F4B984208D101214FF46F
:10205C008030FFF741FF00214FF4803060E71A4BCE
:10206C00984208D101214FF40030FFF735FF0021D1
:10207C004FF4003054E7154B984208D101214FF42E
:10208C008020FFF729FF00214FF4802048E708BD8E
:10209C00002C01400004004000080040000C0040EF
:1020AC00001000400014004000340140004C01407E
:1020BC00005001400054014000180040001C00403A
:1020CC000020004000400140004401400048014015
:1020DC00224A038890429BB212D002F500629042D1
:1020EC000ED0B0F1804F0BD0A2F59832904207D0B1
:1020FC0002F58062904203D002F58062904209D1D1
:10210C004A8823F070031343CA8823F440739BB2AC
:10211C00134306E0124A904203D002F580629042CB
:10212C00F2D103808B8883850B8803850B4B9842F7
:10213C000FD003F5006398420BD003F5406398422F
:10214C0007D003F58063984203D003F5806398426F
:10215C0001D10B7A0386012383827047002C014046
:10216C0000100040038C70B523F001031B041B0C02
:10217C000384038C8488028B0D8822F07302120472
:10218C00120C4E882A4323F002030D891B0435439D
:10219C001B0C2B43144DA4B2A8429BB20FD005F5D7
:1021AC000065A8420BD005F54065A84207D005F59F
:1021BC008065A84203D005F58065A8420ED14D89F3
:1021CC0023F008032B438D8823F00403CE892B4383
:1021DC008D8924F4407435432C43A4B2848002834B
:1021EC00CA888286038470BD002C0140038C70B5B4
:1021FC0023F010031B041B0C0384038C8488028BB8
:10220C000D8822F4E6421204120C42EA05224E8892
:10221C000D8923F020031B0435431B0C43EA0513E3
:10222C00114DA4B2A84292B29BB203D005F5006541
:10223C00A84213D14D8923F0800343EA05134FF6CE
:10224C00BF751D408B88CE8945EA0315ABB28D89CD
:10225C0024F44064354344EA8504A4B284800283A8
:10226C00CA880287038470BD002C0140038C70B5B2
:10227C0023F480731B041B0C0384038C8288848BD3
:10228C000D8824F073042404240C4E882C4323F46E
:10229C0000730D891B0435431B0C43EA0523114DB8
:1022AC0092B2A8429BB203D005F50065A84213D1A7
:1022BC004D8923F4006343EA05234FF6FF351D4097
:1022CC008B88CE8945EA0325ABB28D8922F4405226
:1022DC00354342EA051292B28280CA88848382878F
:1022EC00038470BD002C0140038C70B523F4805323
:1022FC001B041B0C0384038C8488828B0D8822F4B2
:10230C00E6421204120C42EA05224E880D8923F48F
:10231C0000531B0435431B0C43EA05330B4DA4B28D
:10232C00A84292B29BB203D005F50065A84205D134
:10233C008D8924F4804444EA8514A4B28480828379
:10234C00CA88A0F84020038470BD00BF002C014057
:10235C004FF6FF73838000230380C3804380037296
:10236C0070470023038043808380C38003814381B3
:10237C008381C3817047038821B19BB243F0010371
:10238C000380704723F001031B041B0CF8E703893F
:10239C0023F007031B041B0C0381704781867047D5
:1023AC000187704781877047A0F840107047000084
:1023BC00034B044A5A6002F188325A60704700BFDE
:1023CC000020024023016745024A136943F0800351
:1023DC001361704700200240014BD860704700BF6A
:1023EC0000200240084BDA68D10709D4DA6852079A
:1023FC0008D4DB6813F0100F0CBF042003207047C7
:10240C0001207047022070470020024010B504469E
:10241C00FFF7E8FF012806D10CB9052010BDFFF726
:10242C00E1FF013CF6E7002C08BF0520F6E70000B1
:10243C0038B505464FF43020FFF7E8FF042813D1D8
:10244C000A4C4FF43020236943F002032361656189
:10245C00236943F040032361FFF7D8FF236923F07E
:10246C000203DB04DB0C236138BD00BF00200240FB
:10247C0070B505464FF400500E46FFF7C7FF042811
:10248C000FD1084C4FF40050236943F00103236132
:10249C002E80FFF7BBFF236923F00103DB04DB0C69
:1024AC00236170BD00200240FFF7ECFB0A480B498A
:1024BC000B4A914204D250F8043B41F8043BF8E734
:1024CC000849094A0023914202D241F8043BFAE739
:1024DC00FEF7BCFA00F00AB8BC2B00080000002084
:1024EC001800002018000020D8000020FEE7000093
:1024FC00830730B546D08446841805E0634603F85C
:10250C00011B9D0703D09C46A445F7D130BD013A71
:10251C000244A2EB0C02032A29D9CCB204EB04240A
:10252C000F2A04EB04442FD9A2F1100C2CF00F0C41
:10253C0003F11005AC44C3E90044C3E90244103371
:10254C006345F8D112F00C0F02F00F0E18D01A469A
:10255C002EF0030C9C44AEF1040542F8044B62458A
:10256C00FBD125F0030404330EF003022344002AAC
:10257C00CCD0C9B21A4403F8011B9342FBD130BD35
:10258C007246F4E70346C6E79646E0E780F0004063
:10259C0002E000BF81F0004142001FBF5FEA41032F
:1025AC0092EA030F7FEA226C7FEA236C6AD04FEA2F
:1025BC001262D2EB1363C1BFD21841404840414074
:1025CC00B8BF5B42192B88BF704710F0004F40F426
:1025DC00000020F07F4018BF404211F0004F41F442
:1025EC00000121F07F4118BF494292EA030F3FD00E
:1025FC00A2F1010241FA03FC10EB0C00C3F1200321
:10260C0001FA03F100F0004302D5494260EB4000AF
:10261C00B0F5000F13D3B0F1807F06D340084FEA1A
:10262C00310102F10102FE2A51D2B1F1004F40EB0F
:10263C00C25008BF20F0010040EA03007047490077
:10264C0040EB0000013A28BFB0F5000FEDD2B0FA14
:10265C0080FCACF1080CB2EB0C0200FA0CF0AABF37
:10266C0000EBC25052421843BCBFD04018437047D5
:10267C0092F0000F81F4000106BF80F400000132DB
:10268C00013BB5E74FEA41037FEA226C18BF7FEAB2
:10269C00236C21D092EA030F04D092F0000F08BFF4
:1026AC000846704790EA010F1CBF0020704712F0DB
:1026BC007F4F04D1400028BF40F00040704712F11A
:1026CC0000723CBF00F50000704700F0004343F07F
:1026DC00FE4040F4000070477FEA226216BF0846B5
:1026EC007FEA23630146420206BF5FEA412390EA78
:1026FC00010F40F4800070474FF0000304E000BF6E
:10270C0010F0004348BF40425FEA000C08BF70471E
:10271C0043F0964301464FF000001CE050EA0102E2
:10272C0008BF70474FF000030AE000BF50EA0102F7
:10273C0008BF704711F0004302D5404261EB4101E4
:10274C005FEA010C02BF84460146002043F0B64309
:10275C0008BFA3F18053A3F50003BCFA8CF2083A2E
:10276C00A3EBC25310DB01FA02FC634400FA02FC37
:10277C00C2F12002BCF1004F20FA02F243EB02003E
:10278C0008BF20F00100704702F1200201FA02FCA0
:10279C00C2F1200250EA4C0021FA02F243EB020093
:1027AC0008BF20EADC7070474FF0FF0C1CEAD052D7
:1027BC001EBF1CEAD15392EA0C0F93EA0C0F6FD098
:1027CC001A4480EA010C400218BF5FEA41211ED076
:1027DC004FF0006343EA501043EA5111A0FB013162
:1027EC000CF00040B1F5000F3EBF490041EAD37137
:1027FC005B0040EA010062F17F02FD2A1DD8B3F1B3
:10280C00004F40EBC25008BF20F00100704790F021
:10281C00000F0CF0004C08BF49024CEA502040EA73
:10282C0051207F3AC2BFD2F1FF0340EAC250704739
:10283C0040F400004FF00003013A5DDC12F1190F77
:10284C00DCBF00F000407047C2F10002410021FAE9
:10285C0002F1C2F1200200FA02FC5FEA310040F101
:10286C00000053EA4C0308BF20EADC70704792F07A
:10287C00000F00F0004C02BF400010F4000F013AB2
:10288C00F9D040EA0C0093F0000F01F0004C02BFAD
:10289C00490011F4000F013BF9D041EA0C018FE71C
:1028AC000CEAD15392EA0C0F18BF93EA0C0F0AD022
:1028BC0030F0004C18BF31F0004CD8D180EA010048
:1028CC0000F00040704790F0000F17BF90F0004FE1
:1028DC00084691F0000F91F0004F14D092EA0C0FC3
:1028EC0001D142020FD193EA0C0F03D14B0218BF56
:1028FC00084608D180EA010000F0004040F0FE409C
:10290C0040F40000704740F0FE4040F44000704737
:10291C004FF0FF0C1CEAD0521EBF1CEAD15392EAB6
:10292C000C0F93EA0C0F69D0A2EB030280EA010CA6
:10293C0049024FEA402037D04FF0805343EA11113F
:10294C0043EA10130CF000408B4238BF5B0042F19D
:10295C007D024FF4000C8B4224BF5B1A40EA0C0042
:10296C00B3EB510F24BFA3EB510340EA5C00B3EB74
:10297C00910F24BFA3EB910340EA9C00B3EBD10F62
:10298C0024BFA3EBD10340EADC001B0118BF5FEAB4
:10299C001C1CE0D1FD2A3FF650AF8B4240EBC250DD
:1029AC0008BF20F0010070470CF0004C4CEA50209E
:1029BC007F32C2BFD2F1FF0340EAC250704740F4ED
:1029CC0000004FF00003013A37E792F0000F00F0DF
:1029DC00004C02BF400010F4000F013AF9D040EA5D
:1029EC000C0093F0000F01F0004C02BF490011F4F1
:1029FC00000F013BF9D041EA0C0195E70CEAD153E9
:102A0C0092EA0C0F08D142027FF47DAF93EA0C0FCF
:102A1C007FF470AF084676E793EA0C0F04D14B02B3
:102A2C003FF44CAF08466EE730F0004C18BF31F065
:102A3C00004CCAD130F000427FF45CAF31F000435F
:102A4C007FF43CAF5FE700BF4FF0FF3C06E000BFF8
:102A5C004FF0010C02E000BF4FF0010C4DF804CD1B
:102A6C004FEA40024FEA41037FEA226C18BF7FEA2B
:102A7C00236C11D001B052EA530C18BF90EA010F2D
:102A8C0058BFB2EB030088BFC81738BF6FEAE170BC
:102A9C0018BF40F0010070477FEA226C02D15FEA58
:102AAC00402C05D17FEA236CE4D15FEA412CE1D0C4
:102ABC005DF8040B704700BF844608466146FFE78B
:102ACC000FB5FFF7C9FF002848BF10F1000F0FBD6D
:102ADC004DF808EDFFF7F4FF0CBF012000205DF866
:102AEC0008FB00BF4DF808EDFFF7EAFF34BF0120EB
:102AFC0000205DF808FB00BF4DF808EDFFF7E0FF84
:102B0C0094BF012000205DF808FB00BF4DF808EDD4
:102B1C00FFF7D2FF94BF012000205DF808FB00BF37
:102B2C004DF808EDFFF7C8FF34BF012000205DF819
:102B3C0008FB00BF42000ED2B2F1FE4F0BD34FF098
:102B4C009E03B3EB126209D44FEA002343F0004317
:102B5C0023FA02F070474FF00000704712F1610F3A
:102B6C0001D1420202D14FF0FF3070474FF000000C
:102B7C00704700BF000080BF000080BF0000803F96
:102B8C000000803F64640000646400006464000022
:102B9C00646400000142000000000000000000001E
:102BAC0000000000000102030406070809000000F1
:102BBC00FF5F64646400006464000064640000648B
:082BCC006400006400A24A0449
:04000005080024B516
:00000001FF
